{
  "transactions": [
    {
      "hash": "0xec33f44d32de0a302d5af8ceead97914650b5d6c8175382198ee329e6debaa17",
      "transactionType": "CALL",
      "contractName": null,
      "contractAddress": "0x3b4c3885e8144af60a101c75468727863cff23fa",
      "function": "approve(address,uint256)",
      "arguments": [
        "0x000000000022D473030F116dDEE9F6B43aC78BA3",
        "115792089237316195423570985008687907853269984665640564039457584007913129639935"
      ],
      "transaction": {
        "from": "0x2830c21eca4d3f7b5d4e7b7ab4ca0d8c04025bf8",
        "to": "0x3b4c3885e8144af60a101c75468727863cff23fa",
        "gas": "0x8df2",
        "value": "0x0",
        "input": "0x095ea7b3000000000000000000000000000000000022d473030f116ddee9f6b43ac78ba3ffffffffffffffffffffffffffffffffffffffffffffffffffffffffffffffff",
        "nonce": "0x102",
        "chainId": "0xaa36a7"
      },
      "additionalContracts": [],
      "isFixedGasLimit": false
    },
    {
      "hash": "0xc436879cca1ec2c67d96477749ba786078f6cb251febfa4ef19161e9809f1231",
      "transactionType": "CALL",
      "contractName": null,
      "contractAddress": "0x000000000022d473030f116ddee9f6b43ac78ba3",
      "function": "approve(address,address,uint160,uint48)",
      "arguments": [
        "0x3B4c3885E8144af60A101c75468727863cFf23fA",
        "0x429ba70129df741B2Ca2a85BC3A2a3328e5c09b4",
        "1461501637330902918203684832716283019655932542975",
        "281474976710655"
      ],
      "transaction": {
        "from": "0x2830c21eca4d3f7b5d4e7b7ab4ca0d8c04025bf8",
        "to": "0x000000000022d473030f116ddee9f6b43ac78ba3",
        "gas": "0x96a0",
        "value": "0x0",
        "input": "0x87517c450000000000000000000000003b4c3885e8144af60a101c75468727863cff23fa000000000000000000000000429ba70129df741b2ca2a85bc3a2a3328e5c09b4000000000000000000000000ffffffffffffffffffffffffffffffffffffffff0000000000000000000000000000000000000000000000000000ffffffffffff",
        "nonce": "0x103",
        "chainId": "0xaa36a7"
      },
      "additionalContracts": [],
      "isFixedGasLimit": false
    },
    {
      "hash": "0x4389aa16b3e42c561eaed2f10497a7c8b7a938d632f66ec75faaa16b7cef8b75",
      "transactionType": "CALL",
      "contractName": null,
      "contractAddress": "0x90954dcfb08c84e1eba306f59fad660b3a7b5808",
      "function": "approve(address,uint256)",
      "arguments": [
        "0x000000000022D473030F116dDEE9F6B43aC78BA3",
        "115792089237316195423570985008687907853269984665640564039457584007913129639935"
      ],
      "transaction": {
        "from": "0x2830c21eca4d3f7b5d4e7b7ab4ca0d8c04025bf8",
        "to": "0x90954dcfb08c84e1eba306f59fad660b3a7b5808",
        "gas": "0x9bdb",
        "value": "0x0",
        "input": "0x095ea7b3000000000000000000000000000000000022d473030f116ddee9f6b43ac78ba3ffffffffffffffffffffffffffffffffffffffffffffffffffffffffffffffff",
        "nonce": "0x104",
        "chainId": "0xaa36a7"
      },
      "additionalContracts": [],
      "isFixedGasLimit": false
    },
    {
      "hash": "0x7561ef052e4168ae6d69661362b84bce1934bf776b896638ff9653b3b0573457",
      "transactionType": "CALL",
      "contractName": null,
      "contractAddress": "0x000000000022d473030f116ddee9f6b43ac78ba3",
      "function": "approve(address,address,uint160,uint48)",
      "arguments": [
        "0x90954dcFB08C84e1ebA306f59FAD660b3A7B5808",
        "0x429ba70129df741B2Ca2a85BC3A2a3328e5c09b4",
        "1461501637330902918203684832716283019655932542975",
        "281474976710655"
      ],
      "transaction": {
        "from": "0x2830c21eca4d3f7b5d4e7b7ab4ca0d8c04025bf8",
        "to": "0x000000000022d473030f116ddee9f6b43ac78ba3",
        "gas": "0x96a0",
        "value": "0x0",
        "input": "0x87517c4500000000000000000000000090954dcfb08c84e1eba306f59fad660b3a7b5808000000000000000000000000429ba70129df741b2ca2a85bc3a2a3328e5c09b4000000000000000000000000ffffffffffffffffffffffffffffffffffffffff0000000000000000000000000000000000000000000000000000ffffffffffff",
        "nonce": "0x105",
        "chainId": "0xaa36a7"
      },
      "additionalContracts": [],
      "isFixedGasLimit": false
    },
    {
      "hash": "0xe214fd653952c25d0064f7a64da2f2f9b1833ca83518eeb171a391a8eb09773e",
      "transactionType": "CALL",
      "contractName": null,
      "contractAddress": "0x429ba70129df741b2ca2a85bc3a2a3328e5c09b4",
      "function": "multicall(bytes[])",
      "arguments": [
        "[0xdd46508f000000000000000000000000000000000000000000000000000000000000004000000000000000000000000000000000000000000000000000000000687a920c0000000000000000000000000000000000000000000000000000000000000400000000000000000000000000000000000000000000000000000000000000004000000000000000000000000000000000000000000000000000000000000000800000000000000000000000000000000000000000000000000000000000000004020d14140000000000000000000000000000000000000000000000000000000000000000000000000000000000000000000000000000000000000000000000040000000000000000000000000000000000000000000000000000000000000080000000000000000000000000000000000000000000000000000000000000024000000000000000000000000000000000000000000000000000000000000002a0000000000000000000000000000000000000000000000000000000000000030000000000000000000000000000000000000000000000000000000000000001a00000000000000000000000003b4c3885e8144af60a101c75468727863cff23fa00000000000000000000000090954dcfb08c84e1eba306f59fad660b3a7b58080000000000000000000000000000000000000000000000000000000000000bb8000000000000000000000000000000000000000000000000000000000000003c000000000000000000000000c9e902b5047433935c8f6b173fc936fd696c00c0fffffffffffffffffffffffffffffffffffffffffffffffffffffffffffe9b480000000000000000000000000000000000000000000000000000000000006fcc000000000000000000000000000000000000000000000000030cc25646de16bc0000000000000000000000000000000000000000000000000de0b6b3a76400010000000000000000000000000000000000000000000000000de0b6b3a76400010000000000000000000000002830c21eca4d3f7b5d4e7b7ab4ca0d8c04025bf80000000000000000000000000000000000000000000000000000000000000180000000000000000000000000000000000000000000000000000000000000000000000000000000000000000000000000000000000000000000000000000000400000000000000000000000003b4c3885e8144af60a101c75468727863cff23fa00000000000000000000000090954dcfb08c84e1eba306f59fad660b3a7b580800000000000000000000000000000000000000000000000000000000000000400000000000000000000000003b4c3885e8144af60a101c75468727863cff23fa0000000000000000000000002830c21eca4d3f7b5d4e7b7ab4ca0d8c04025bf8000000000000000000000000000000000000000000000000000000000000004000000000000000000000000090954dcfb08c84e1eba306f59fad660b3a7b58080000000000000000000000002830c21eca4d3f7b5d4e7b7ab4ca0d8c04025bf8]"
      ],
      "transaction": {
        "from": "0x2830c21eca4d3f7b5d4e7b7ab4ca0d8c04025bf8",
        "to": "0x429ba70129df741b2ca2a85bc3a2a3328e5c09b4",
        "gas": "0x7a0ab",
        "value": "0x0",
        "input": "0xac9650d80000000000000000000000000000000000000000000000000000000000000020000000000000000000000000000000000000000000000000000000000000000100000000000000000000000000000000000000000000000000000000000000200000000000000000000000000000000000000000000000000000000000000464dd46508f000000000000000000000000000000000000000000000000000000000000004000000000000000000000000000000000000000000000000000000000687a920c0000000000000000000000000000000000000000000000000000000000000400000000000000000000000000000000000000000000000000000000000000004000000000000000000000000000000000000000000000000000000000000000800000000000000000000000000000000000000000000000000000000000000004020d14140000000000000000000000000000000000000000000000000000000000000000000000000000000000000000000000000000000000000000000000040000000000000000000000000000000000000000000000000000000000000080000000000000000000000000000000000000000000000000000000000000024000000000000000000000000000000000000000000000000000000000000002a0000000000000000000000000000000000000000000000000000000000000030000000000000000000000000000000000000000000000000000000000000001a00000000000000000000000003b4c3885e8144af60a101c75468727863cff23fa00000000000000000000000090954dcfb08c84e1eba306f59fad660b3a7b58080000000000000000000000000000000000000000000000000000000000000bb8000000000000000000000000000000000000000000000000000000000000003c000000000000000000000000c9e902b5047433935c8f6b173fc936fd696c00c0fffffffffffffffffffffffffffffffffffffffffffffffffffffffffffe9b480000000000000000000000000000000000000000000000000000000000006fcc000000000000000000000000000000000000000000000000030cc25646de16bc0000000000000000000000000000000000000000000000000de0b6b3a76400010000000000000000000000000000000000000000000000000de0b6b3a76400010000000000000000000000002830c21eca4d3f7b5d4e7b7ab4ca0d8c04025bf80000000000000000000000000000000000000000000000000000000000000180000000000000000000000000000000000000000000000000000000000000000000000000000000000000000000000000000000000000000000000000000000400000000000000000000000003b4c3885e8144af60a101c75468727863cff23fa00000000000000000000000090954dcfb08c84e1eba306f59fad660b3a7b580800000000000000000000000000000000000000000000000000000000000000400000000000000000000000003b4c3885e8144af60a101c75468727863cff23fa0000000000000000000000002830c21eca4d3f7b5d4e7b7ab4ca0d8c04025bf8000000000000000000000000000000000000000000000000000000000000004000000000000000000000000090954dcfb08c84e1eba306f59fad660b3a7b58080000000000000000000000002830c21eca4d3f7b5d4e7b7ab4ca0d8c04025bf800000000000000000000000000000000000000000000000000000000",
        "nonce": "0x106",
        "chainId": "0xaa36a7"
      },
      "additionalContracts": [],
      "isFixedGasLimit": false
    }
  ],
  "receipts": [
    {
      "status": "0x1",
      "cumulativeGasUsed": "0x1cd2e20",
      "logs": [
        {
          "address": "0x3b4c3885e8144af60a101c75468727863cff23fa",
          "topics": [
            "0x8c5be1e5ebec7d5bd14f71427d1e84f3dd0314c0f7b2291e5b200ac8c7c3b925",
            "0x0000000000000000000000002830c21eca4d3f7b5d4e7b7ab4ca0d8c04025bf8",
            "0x000000000000000000000000000000000022d473030f116ddee9f6b43ac78ba3"
          ],
          "data": "0xffffffffffffffffffffffffffffffffffffffffffffffffffffffffffffffff",
          "blockHash": "0x48dbd2ba8df1434e173a0ce92d2f6db79399a4683755f4be48c82b4fa85c57f9",
          "blockNumber": "0x86290f",
          "transactionHash": "0xec33f44d32de0a302d5af8ceead97914650b5d6c8175382198ee329e6debaa17",
          "transactionIndex": "0x9b",
          "logIndex": "0x11d",
          "removed": false
        }
      ],
      "logsBloom": "0x00000000000000000000000000000000000000002000000000000000000000000000000000000000000000000000000000000000800000000000000000200000000000000000000000004000000000000000000000000800000000800008000000000000000000000000000000000000000000000000000000000000000000000000000000000008000000000000000000000000000000000000000000000000020000000000000000000000000000000000000000000000000000000000000000000000000000000000000000000000000000000000000000000000000000000410000000000000000000000000008000000000000000000000000000000000",
      "type": "0x2",
      "transactionHash": "0xec33f44d32de0a302d5af8ceead97914650b5d6c8175382198ee329e6debaa17",
      "transactionIndex": "0x9b",
      "blockHash": "0x48dbd2ba8df1434e173a0ce92d2f6db79399a4683755f4be48c82b4fa85c57f9",
      "blockNumber": "0x86290f",
      "gasUsed": "0x66c5",
      "effectiveGasPrice": "0xff10d",
      "from": "0x2830c21eca4d3f7b5d4e7b7ab4ca0d8c04025bf8",
      "to": "0x3b4c3885e8144af60a101c75468727863cff23fa",
      "contractAddress": null
    },
    {
      "status": "0x1",
      "cumulativeGasUsed": "0x1cd9b2e",
      "logs": [
        {
          "address": "0x000000000022d473030f116ddee9f6b43ac78ba3",
          "topics": [
            "0xda9fa7c1b00402c17d0161b249b1ab8bbec047c5a52207b9c112deffd817036b",
            "0x0000000000000000000000002830c21eca4d3f7b5d4e7b7ab4ca0d8c04025bf8",
            "0x0000000000000000000000003b4c3885e8144af60a101c75468727863cff23fa",
            "0x000000000000000000000000429ba70129df741b2ca2a85bc3a2a3328e5c09b4"
          ],
          "data": "0x000000000000000000000000ffffffffffffffffffffffffffffffffffffffff0000000000000000000000000000000000000000000000000000ffffffffffff",
          "blockHash": "0x48dbd2ba8df1434e173a0ce92d2f6db79399a4683755f4be48c82b4fa85c57f9",
          "blockNumber": "0x86290f",
          "transactionHash": "0xc436879cca1ec2c67d96477749ba786078f6cb251febfa4ef19161e9809f1231",
          "transactionIndex": "0x9c",
          "logIndex": "0x11e",
          "removed": false
        }
      ],
      "logsBloom": "0x00010000000000000000000000000000000200000000000000000000000000000000000000000040080000000000000000000000000000000000000000080000000000000000000000000000000000000000000000000000000000000008000000000000000000000000000000000000000000000000000000000800000000000020000000000000000000000000000000000000000000000000000000000000000000000000000000000000000000000000000000000800000000080000000000000000000000000000000000000000000000000000000040000000000000000400000000000000000000000000008000000000000000000000000002000400",
      "type": "0x2",
      "transactionHash": "0xc436879cca1ec2c67d96477749ba786078f6cb251febfa4ef19161e9809f1231",
      "transactionIndex": "0x9c",
      "blockHash": "0x48dbd2ba8df1434e173a0ce92d2f6db79399a4683755f4be48c82b4fa85c57f9",
      "blockNumber": "0x86290f",
      "gasUsed": "0x6d0e",
      "effectiveGasPrice": "0xff10d",
      "from": "0x2830c21eca4d3f7b5d4e7b7ab4ca0d8c04025bf8",
      "to": "0x000000000022d473030f116ddee9f6b43ac78ba3",
      "contractAddress": null
    },
    {
      "status": "0x1",
      "cumulativeGasUsed": "0x1894ad1",
      "logs": [
        {
          "address": "0x90954dcfb08c84e1eba306f59fad660b3a7b5808",
          "topics": [
            "0x8c5be1e5ebec7d5bd14f71427d1e84f3dd0314c0f7b2291e5b200ac8c7c3b925",
            "0x0000000000000000000000002830c21eca4d3f7b5d4e7b7ab4ca0d8c04025bf8",
            "0x000000000000000000000000000000000022d473030f116ddee9f6b43ac78ba3"
          ],
          "data": "0xffffffffffffffffffffffffffffffffffffffffffffffffffffffffffffffff",
          "blockHash": "0x71f9fd9ccc743b90d836cb01494046c8862105523193536ab6cb9b1a9e8d0ef3",
          "blockNumber": "0x862911",
          "transactionHash": "0x4389aa16b3e42c561eaed2f10497a7c8b7a938d632f66ec75faaa16b7cef8b75",
          "transactionIndex": "0x86",
          "logIndex": "0xeb",
          "removed": false
        }
      ],
      "logsBloom": "0x00000000000000000000000000000000000000000000000000000000000000000000000000000000000000000000000000000000800000000000000000200000000000000000000000004000000000000000000020000800000000000008000000000000000000000000000000000000000100000000000000000000000000000000000000000000000000000000000000000000000000000000000000000000020000000000000000000000000000000000000000000000000000000000000000000000000020000000000000000000000000000000000000000000000000000410000000000000000000000000008000000000000000000000000000000000",
      "type": "0x2",
      "transactionHash": "0x4389aa16b3e42c561eaed2f10497a7c8b7a938d632f66ec75faaa16b7cef8b75",
      "transactionIndex": "0x86",
      "blockHash": "0x71f9fd9ccc743b90d836cb01494046c8862105523193536ab6cb9b1a9e8d0ef3",
      "blockNumber": "0x862911",
      "gasUsed": "0x6a92",
      "effectiveGasPrice": "0xff194",
      "from": "0x2830c21eca4d3f7b5d4e7b7ab4ca0d8c04025bf8",
      "to": "0x90954dcfb08c84e1eba306f59fad660b3a7b5808",
      "contractAddress": null
    },
    {
      "status": "0x1",
      "cumulativeGasUsed": "0x189b7df",
      "logs": [
        {
          "address": "0x000000000022d473030f116ddee9f6b43ac78ba3",
          "topics": [
            "0xda9fa7c1b00402c17d0161b249b1ab8bbec047c5a52207b9c112deffd817036b",
            "0x0000000000000000000000002830c21eca4d3f7b5d4e7b7ab4ca0d8c04025bf8",
            "0x00000000000000000000000090954dcfb08c84e1eba306f59fad660b3a7b5808",
            "0x000000000000000000000000429ba70129df741b2ca2a85bc3a2a3328e5c09b4"
          ],
          "data": "0x000000000000000000000000ffffffffffffffffffffffffffffffffffffffff0000000000000000000000000000000000000000000000000000ffffffffffff",
          "blockHash": "0x71f9fd9ccc743b90d836cb01494046c8862105523193536ab6cb9b1a9e8d0ef3",
          "blockNumber": "0x862911",
          "transactionHash": "0x7561ef052e4168ae6d69661362b84bce1934bf776b896638ff9653b3b0573457",
          "transactionIndex": "0x87",
          "logIndex": "0xec",
          "removed": false
        }
      ],
      "logsBloom": "0x00010000000000000000000000000000000000000000000000000000000000000000000000000040080000000000000000000000000000000000000000080000001000000000000000000000000000000000000000000000000000000008000000000000000000000000000000000000000000000000000000000800000000000020000000000000000000000000000000020000000000000000000000000000000000040000000000000000000000000000000000000000000000080000000000000000000000000000000000000000000000000000000040000000000000000400000000000000000000000000008000000000000000000000000000000400",
      "type": "0x2",
      "transactionHash": "0x7561ef052e4168ae6d69661362b84bce1934bf776b896638ff9653b3b0573457",
      "transactionIndex": "0x87",
      "blockHash": "0x71f9fd9ccc743b90d836cb01494046c8862105523193536ab6cb9b1a9e8d0ef3",
      "blockNumber": "0x862911",
      "gasUsed": "0x6d0e",
      "effectiveGasPrice": "0xff194",
      "from": "0x2830c21eca4d3f7b5d4e7b7ab4ca0d8c04025bf8",
      "to": "0x000000000022d473030f116ddee9f6b43ac78ba3",
      "contractAddress": null
    },
    {
      "status": "0x1",
      "cumulativeGasUsed": "0x18eef08",
      "logs": [
        {
          "address": "0x429ba70129df741b2ca2a85bc3a2a3328e5c09b4",
          "topics": [
            "0xddf252ad1be2c89b69c2b068fc378daa952ba7f163c4a11628f55a4df523b3ef",
            "0x0000000000000000000000000000000000000000000000000000000000000000",
            "0x0000000000000000000000002830c21eca4d3f7b5d4e7b7ab4ca0d8c04025bf8",
            "0x0000000000000000000000000000000000000000000000000000000000003af1"
          ],
          "data": "0x",
          "blockHash": "0x71f9fd9ccc743b90d836cb01494046c8862105523193536ab6cb9b1a9e8d0ef3",
          "blockNumber": "0x862911",
          "transactionHash": "0xe214fd653952c25d0064f7a64da2f2f9b1833ca83518eeb171a391a8eb09773e",
          "transactionIndex": "0x88",
          "logIndex": "0xed",
          "removed": false
        },
        {
          "address": "0xe03a1074c86cfedd5c142c4f04f1a1536e203543",
          "topics": [
            "0xf208f4912782fd25c7f114ca3723a2d5dd6f3bcc3ac8db5af63baa85f711d5ec",
            "0x4e8851e31d32848b9d32e9b388421cc0129b43a827b1dd1c80450cb56ff0924d",
            "0x000000000000000000000000429ba70129df741b2ca2a85bc3a2a3328e5c09b4"
          ],
          "data": "0xfffffffffffffffffffffffffffffffffffffffffffffffffffffffffffe9b480000000000000000000000000000000000000000000000000000000000006fcc000000000000000000000000000000000000000000000000030cc25646de16bc0000000000000000000000000000000000000000000000000000000000003af1",
          "blockHash": "0x71f9fd9ccc743b90d836cb01494046c8862105523193536ab6cb9b1a9e8d0ef3",
          "blockNumber": "0x862911",
          "transactionHash": "0xe214fd653952c25d0064f7a64da2f2f9b1833ca83518eeb171a391a8eb09773e",
          "transactionIndex": "0x88",
          "logIndex": "0xee",
          "removed": false
        },
        {
          "address": "0x3b4c3885e8144af60a101c75468727863cff23fa",
          "topics": [
            "0xddf252ad1be2c89b69c2b068fc378daa952ba7f163c4a11628f55a4df523b3ef",
            "0x0000000000000000000000002830c21eca4d3f7b5d4e7b7ab4ca0d8c04025bf8",
            "0x000000000000000000000000e03a1074c86cfedd5c142c4f04f1a1536e203543"
          ],
          "data": "0x0000000000000000000000000000000000000000000000000de0b6b3a763fffd",
          "blockHash": "0x71f9fd9ccc743b90d836cb01494046c8862105523193536ab6cb9b1a9e8d0ef3",
          "blockNumber": "0x862911",
          "transactionHash": "0xe214fd653952c25d0064f7a64da2f2f9b1833ca83518eeb171a391a8eb09773e",
          "transactionIndex": "0x88",
          "logIndex": "0xef",
          "removed": false
        },
        {
          "address": "0x90954dcfb08c84e1eba306f59fad660b3a7b5808",
          "topics": [
            "0xddf252ad1be2c89b69c2b068fc378daa952ba7f163c4a11628f55a4df523b3ef",
            "0x0000000000000000000000002830c21eca4d3f7b5d4e7b7ab4ca0d8c04025bf8",
            "0x000000000000000000000000e03a1074c86cfedd5c142c4f04f1a1536e203543"
          ],
          "data": "0x000000000000000000000000000000000000000000000000009ae56a363e0f6d",
          "blockHash": "0x71f9fd9ccc743b90d836cb01494046c8862105523193536ab6cb9b1a9e8d0ef3",
          "blockNumber": "0x862911",
          "transactionHash": "0xe214fd653952c25d0064f7a64da2f2f9b1833ca83518eeb171a391a8eb09773e",
          "transactionIndex": "0x88",
          "logIndex": "0xf0",
          "removed": false
        }
      ],
      "logsBloom": "0x00000000010000000000001000000000000000002000400000000000080000000000000000000040080000000000000000000100000000000000000000000000000000000000000000000008000000000000000020000000000000800008000000000000020000000000000080000800000100000000100000000810000000000000000001000008000010000000000080000000000000001000000000000000000004000000000000000000000000000000000000400000000000000000000000000002000020000040000000000000000000000000000000001000000020001480000000000000000000000000008004000000000000000000000000000000",
      "type": "0x2",
      "transactionHash": "0xe214fd653952c25d0064f7a64da2f2f9b1833ca83518eeb171a391a8eb09773e",
      "transactionIndex": "0x88",
      "blockHash": "0x71f9fd9ccc743b90d836cb01494046c8862105523193536ab6cb9b1a9e8d0ef3",
      "blockNumber": "0x862911",
      "gasUsed": "0x53729",
      "effectiveGasPrice": "0xff194",
      "from": "0x2830c21eca4d3f7b5d4e7b7ab4ca0d8c04025bf8",
      "to": "0x429ba70129df741b2ca2a85bc3a2a3328e5c09b4",
      "contractAddress": null
    }
  ],
  "libraries": [],
  "pending": [],
  "returns": {},
  "timestamp": 1752863234,
  "chain": 11155111,
  "commit": "9870984"
}