{
  "transactions": [
    {
      "hash": "0x8858dcde3f01828e69145cb43b60adcb9ea00e17320c7e7a07f59d11e98c1088",
      "transactionType": "CALL",
      "contractName": null,
      "contractAddress": "0x3b4c3885e8144af60a101c75468727863cff23fa",
      "function": "approve(address,uint256)",
      "arguments": [
        "0x000000000022D473030F116dDEE9F6B43aC78BA3",
        "115792089237316195423570985008687907853269984665640564039457584007913129639935"
      ],
      "transaction": {
        "from": "0x2830c21eca4d3f7b5d4e7b7ab4ca0d8c04025bf8",
        "to": "0x3b4c3885e8144af60a101c75468727863cff23fa",
        "gas": "0x8df2",
        "value": "0x0",
        "input": "0x095ea7b3000000000000000000000000000000000022d473030f116ddee9f6b43ac78ba3ffffffffffffffffffffffffffffffffffffffffffffffffffffffffffffffff",
        "nonce": "0xf3",
        "chainId": "0xaa36a7"
      },
      "additionalContracts": [],
      "isFixedGasLimit": false
    },
    {
      "hash": "0xe52d59ef059d0613fd1c6084b823bbc7557ca7ac749ef28277d6d6614eb254b9",
      "transactionType": "CALL",
      "contractName": null,
      "contractAddress": "0x000000000022d473030f116ddee9f6b43ac78ba3",
      "function": "approve(address,address,uint160,uint48)",
      "arguments": [
        "0x3B4c3885E8144af60A101c75468727863cFf23fA",
        "0x429ba70129df741B2Ca2a85BC3A2a3328e5c09b4",
        "1461501637330902918203684832716283019655932542975",
        "281474976710655"
      ],
      "transaction": {
        "from": "0x2830c21eca4d3f7b5d4e7b7ab4ca0d8c04025bf8",
        "to": "0x000000000022d473030f116ddee9f6b43ac78ba3",
        "gas": "0x96a0",
        "value": "0x0",
        "input": "0x87517c450000000000000000000000003b4c3885e8144af60a101c75468727863cff23fa000000000000000000000000429ba70129df741b2ca2a85bc3a2a3328e5c09b4000000000000000000000000ffffffffffffffffffffffffffffffffffffffff0000000000000000000000000000000000000000000000000000ffffffffffff",
        "nonce": "0xf4",
        "chainId": "0xaa36a7"
      },
      "additionalContracts": [],
      "isFixedGasLimit": false
    },
    {
      "hash": "0xc45763629641ebe14368a1f765193f134d64dda178acaf15bbcc4b5052165888",
      "transactionType": "CALL",
      "contractName": null,
      "contractAddress": "0x90954dcfb08c84e1eba306f59fad660b3a7b5808",
      "function": "approve(address,uint256)",
      "arguments": [
        "0x000000000022D473030F116dDEE9F6B43aC78BA3",
        "115792089237316195423570985008687907853269984665640564039457584007913129639935"
      ],
      "transaction": {
        "from": "0x2830c21eca4d3f7b5d4e7b7ab4ca0d8c04025bf8",
        "to": "0x90954dcfb08c84e1eba306f59fad660b3a7b5808",
        "gas": "0x9bdb",
        "value": "0x0",
        "input": "0x095ea7b3000000000000000000000000000000000022d473030f116ddee9f6b43ac78ba3ffffffffffffffffffffffffffffffffffffffffffffffffffffffffffffffff",
        "nonce": "0xf5",
        "chainId": "0xaa36a7"
      },
      "additionalContracts": [],
      "isFixedGasLimit": false
    },
    {
      "hash": "0x971b6328bda3cb48707df8ca671ea5f4b4fb48a83938a1aa3456f8dc4db5f9ec",
      "transactionType": "CALL",
      "contractName": null,
      "contractAddress": "0x000000000022d473030f116ddee9f6b43ac78ba3",
      "function": "approve(address,address,uint160,uint48)",
      "arguments": [
        "0x90954dcFB08C84e1ebA306f59FAD660b3A7B5808",
        "0x429ba70129df741B2Ca2a85BC3A2a3328e5c09b4",
        "1461501637330902918203684832716283019655932542975",
        "281474976710655"
      ],
      "transaction": {
        "from": "0x2830c21eca4d3f7b5d4e7b7ab4ca0d8c04025bf8",
        "to": "0x000000000022d473030f116ddee9f6b43ac78ba3",
        "gas": "0x96a0",
        "value": "0x0",
        "input": "0x87517c4500000000000000000000000090954dcfb08c84e1eba306f59fad660b3a7b5808000000000000000000000000429ba70129df741b2ca2a85bc3a2a3328e5c09b4000000000000000000000000ffffffffffffffffffffffffffffffffffffffff0000000000000000000000000000000000000000000000000000ffffffffffff",
        "nonce": "0xf6",
        "chainId": "0xaa36a7"
      },
      "additionalContracts": [],
      "isFixedGasLimit": false
    },
    {
      "hash": "0xdefd9a6690bdf5787b658bf4765ad61158526418f1c8eaeb98947470aaa3eed0",
      "transactionType": "CALL",
      "contractName": null,
      "contractAddress": "0x429ba70129df741b2ca2a85bc3a2a3328e5c09b4",
      "function": "multicall(bytes[])",
      "arguments": [
        "[0xdd46508f000000000000000000000000000000000000000000000000000000000000004000000000000000000000000000000000000000000000000000000000687a89600000000000000000000000000000000000000000000000000000000000000400000000000000000000000000000000000000000000000000000000000000004000000000000000000000000000000000000000000000000000000000000000800000000000000000000000000000000000000000000000000000000000000004020d14140000000000000000000000000000000000000000000000000000000000000000000000000000000000000000000000000000000000000000000000040000000000000000000000000000000000000000000000000000000000000080000000000000000000000000000000000000000000000000000000000000024000000000000000000000000000000000000000000000000000000000000002a0000000000000000000000000000000000000000000000000000000000000030000000000000000000000000000000000000000000000000000000000000001a00000000000000000000000003b4c3885e8144af60a101c75468727863cff23fa00000000000000000000000090954dcfb08c84e1eba306f59fad660b3a7b58080000000000000000000000000000000000000000000000000000000000000bb8000000000000000000000000000000000000000000000000000000000000003c000000000000000000000000c9e902b5047433935c8f6b173fc936fd696c00c0fffffffffffffffffffffffffffffffffffffffffffffffffffffffffffe9b480000000000000000000000000000000000000000000000000000000000006fcc000000000000000000000000000000000000000000000000030cc25646de16bc0000000000000000000000000000000000000000000000000de0b6b3a76400010000000000000000000000000000000000000000000000000de0b6b3a76400010000000000000000000000002830c21eca4d3f7b5d4e7b7ab4ca0d8c04025bf80000000000000000000000000000000000000000000000000000000000000180000000000000000000000000000000000000000000000000000000000000000000000000000000000000000000000000000000000000000000000000000000400000000000000000000000003b4c3885e8144af60a101c75468727863cff23fa00000000000000000000000090954dcfb08c84e1eba306f59fad660b3a7b580800000000000000000000000000000000000000000000000000000000000000400000000000000000000000003b4c3885e8144af60a101c75468727863cff23fa0000000000000000000000002830c21eca4d3f7b5d4e7b7ab4ca0d8c04025bf8000000000000000000000000000000000000000000000000000000000000004000000000000000000000000090954dcfb08c84e1eba306f59fad660b3a7b58080000000000000000000000002830c21eca4d3f7b5d4e7b7ab4ca0d8c04025bf8]"
      ],
      "transaction": {
        "from": "0x2830c21eca4d3f7b5d4e7b7ab4ca0d8c04025bf8",
        "to": "0x429ba70129df741b2ca2a85bc3a2a3328e5c09b4",
        "gas": "0x7a0ab",
        "value": "0x0",
        "input": "0xac9650d80000000000000000000000000000000000000000000000000000000000000020000000000000000000000000000000000000000000000000000000000000000100000000000000000000000000000000000000000000000000000000000000200000000000000000000000000000000000000000000000000000000000000464dd46508f000000000000000000000000000000000000000000000000000000000000004000000000000000000000000000000000000000000000000000000000687a89600000000000000000000000000000000000000000000000000000000000000400000000000000000000000000000000000000000000000000000000000000004000000000000000000000000000000000000000000000000000000000000000800000000000000000000000000000000000000000000000000000000000000004020d14140000000000000000000000000000000000000000000000000000000000000000000000000000000000000000000000000000000000000000000000040000000000000000000000000000000000000000000000000000000000000080000000000000000000000000000000000000000000000000000000000000024000000000000000000000000000000000000000000000000000000000000002a0000000000000000000000000000000000000000000000000000000000000030000000000000000000000000000000000000000000000000000000000000001a00000000000000000000000003b4c3885e8144af60a101c75468727863cff23fa00000000000000000000000090954dcfb08c84e1eba306f59fad660b3a7b58080000000000000000000000000000000000000000000000000000000000000bb8000000000000000000000000000000000000000000000000000000000000003c000000000000000000000000c9e902b5047433935c8f6b173fc936fd696c00c0fffffffffffffffffffffffffffffffffffffffffffffffffffffffffffe9b480000000000000000000000000000000000000000000000000000000000006fcc000000000000000000000000000000000000000000000000030cc25646de16bc0000000000000000000000000000000000000000000000000de0b6b3a76400010000000000000000000000000000000000000000000000000de0b6b3a76400010000000000000000000000002830c21eca4d3f7b5d4e7b7ab4ca0d8c04025bf80000000000000000000000000000000000000000000000000000000000000180000000000000000000000000000000000000000000000000000000000000000000000000000000000000000000000000000000000000000000000000000000400000000000000000000000003b4c3885e8144af60a101c75468727863cff23fa00000000000000000000000090954dcfb08c84e1eba306f59fad660b3a7b580800000000000000000000000000000000000000000000000000000000000000400000000000000000000000003b4c3885e8144af60a101c75468727863cff23fa0000000000000000000000002830c21eca4d3f7b5d4e7b7ab4ca0d8c04025bf8000000000000000000000000000000000000000000000000000000000000004000000000000000000000000090954dcfb08c84e1eba306f59fad660b3a7b58080000000000000000000000002830c21eca4d3f7b5d4e7b7ab4ca0d8c04025bf800000000000000000000000000000000000000000000000000000000",
        "nonce": "0xf7",
        "chainId": "0xaa36a7"
      },
      "additionalContracts": [],
      "isFixedGasLimit": false
    }
  ],
  "receipts": [
    {
      "status": "0x1",
      "cumulativeGasUsed": "0x19f5178",
      "logs": [
        {
          "address": "0x3b4c3885e8144af60a101c75468727863cff23fa",
          "topics": [
            "0x8c5be1e5ebec7d5bd14f71427d1e84f3dd0314c0f7b2291e5b200ac8c7c3b925",
            "0x0000000000000000000000002830c21eca4d3f7b5d4e7b7ab4ca0d8c04025bf8",
            "0x000000000000000000000000000000000022d473030f116ddee9f6b43ac78ba3"
          ],
          "data": "0xffffffffffffffffffffffffffffffffffffffffffffffffffffffffffffffff",
          "blockHash": "0x49850958910f60243ca81fef06fe9ecad7b613295ca40482665d339767f49c3a",
          "blockNumber": "0x862862",
          "transactionHash": "0x8858dcde3f01828e69145cb43b60adcb9ea00e17320c7e7a07f59d11e98c1088",
          "transactionIndex": "0xad",
          "logIndex": "0x176",
          "removed": false
        }
      ],
      "logsBloom": "0x00000000000000000000000000000000000000002000000000000000000000000000000000000000000000000000000000000000800000000000000000200000000000000000000000004000000000000000000000000800000000800008000000000000000000000000000000000000000000000000000000000000000000000000000000000008000000000000000000000000000000000000000000000000020000000000000000000000000000000000000000000000000000000000000000000000000000000000000000000000000000000000000000000000000000000410000000000000000000000000008000000000000000000000000000000000",
      "type": "0x2",
      "transactionHash": "0x8858dcde3f01828e69145cb43b60adcb9ea00e17320c7e7a07f59d11e98c1088",
      "transactionIndex": "0xad",
      "blockHash": "0x49850958910f60243ca81fef06fe9ecad7b613295ca40482665d339767f49c3a",
      "blockNumber": "0x862862",
      "gasUsed": "0x66c5",
      "effectiveGasPrice": "0x121d63",
      "from": "0x2830c21eca4d3f7b5d4e7b7ab4ca0d8c04025bf8",
      "to": "0x3b4c3885e8144af60a101c75468727863cff23fa",
      "contractAddress": null
    },
    {
      "status": "0x1",
      "cumulativeGasUsed": "0x19fbe86",
      "logs": [
        {
          "address": "0x000000000022d473030f116ddee9f6b43ac78ba3",
          "topics": [
            "0xda9fa7c1b00402c17d0161b249b1ab8bbec047c5a52207b9c112deffd817036b",
            "0x0000000000000000000000002830c21eca4d3f7b5d4e7b7ab4ca0d8c04025bf8",
            "0x0000000000000000000000003b4c3885e8144af60a101c75468727863cff23fa",
            "0x000000000000000000000000429ba70129df741b2ca2a85bc3a2a3328e5c09b4"
          ],
          "data": "0x000000000000000000000000ffffffffffffffffffffffffffffffffffffffff0000000000000000000000000000000000000000000000000000ffffffffffff",
          "blockHash": "0x49850958910f60243ca81fef06fe9ecad7b613295ca40482665d339767f49c3a",
          "blockNumber": "0x862862",
          "transactionHash": "0xe52d59ef059d0613fd1c6084b823bbc7557ca7ac749ef28277d6d6614eb254b9",
          "transactionIndex": "0xae",
          "logIndex": "0x177",
          "removed": false
        }
      ],
      "logsBloom": "0x00010000000000000000000000000000000200000000000000000000000000000000000000000040080000000000000000000000000000000000000000080000000000000000000000000000000000000000000000000000000000000008000000000000000000000000000000000000000000000000000000000800000000000020000000000000000000000000000000000000000000000000000000000000000000000000000000000000000000000000000000000800000000080000000000000000000000000000000000000000000000000000000040000000000000000400000000000000000000000000008000000000000000000000000002000400",
      "type": "0x2",
      "transactionHash": "0xe52d59ef059d0613fd1c6084b823bbc7557ca7ac749ef28277d6d6614eb254b9",
      "transactionIndex": "0xae",
      "blockHash": "0x49850958910f60243ca81fef06fe9ecad7b613295ca40482665d339767f49c3a",
      "blockNumber": "0x862862",
      "gasUsed": "0x6d0e",
      "effectiveGasPrice": "0x121d63",
      "from": "0x2830c21eca4d3f7b5d4e7b7ab4ca0d8c04025bf8",
      "to": "0x000000000022d473030f116ddee9f6b43ac78ba3",
      "contractAddress": null
    },
    {
      "status": "0x1",
      "cumulativeGasUsed": "0x1a02918",
      "logs": [
        {
          "address": "0x90954dcfb08c84e1eba306f59fad660b3a7b5808",
          "topics": [
            "0x8c5be1e5ebec7d5bd14f71427d1e84f3dd0314c0f7b2291e5b200ac8c7c3b925",
            "0x0000000000000000000000002830c21eca4d3f7b5d4e7b7ab4ca0d8c04025bf8",
            "0x000000000000000000000000000000000022d473030f116ddee9f6b43ac78ba3"
          ],
          "data": "0xffffffffffffffffffffffffffffffffffffffffffffffffffffffffffffffff",
          "blockHash": "0x49850958910f60243ca81fef06fe9ecad7b613295ca40482665d339767f49c3a",
          "blockNumber": "0x862862",
          "transactionHash": "0xc45763629641ebe14368a1f765193f134d64dda178acaf15bbcc4b5052165888",
          "transactionIndex": "0xaf",
          "logIndex": "0x178",
          "removed": false
        }
      ],
      "logsBloom": "0x00000000000000000000000000000000000000000000000000000000000000000000000000000000000000000000000000000000800000000000000000200000000000000000000000004000000000000000000020000800000000000008000000000000000000000000000000000000000100000000000000000000000000000000000000000000000000000000000000000000000000000000000000000000020000000000000000000000000000000000000000000000000000000000000000000000000020000000000000000000000000000000000000000000000000000410000000000000000000000000008000000000000000000000000000000000",
      "type": "0x2",
      "transactionHash": "0xc45763629641ebe14368a1f765193f134d64dda178acaf15bbcc4b5052165888",
      "transactionIndex": "0xaf",
      "blockHash": "0x49850958910f60243ca81fef06fe9ecad7b613295ca40482665d339767f49c3a",
      "blockNumber": "0x862862",
      "gasUsed": "0x6a92",
      "effectiveGasPrice": "0x121d63",
      "from": "0x2830c21eca4d3f7b5d4e7b7ab4ca0d8c04025bf8",
      "to": "0x90954dcfb08c84e1eba306f59fad660b3a7b5808",
      "contractAddress": null
    },
    {
      "status": "0x1",
      "cumulativeGasUsed": "0x19d5884",
      "logs": [
        {
          "address": "0x000000000022d473030f116ddee9f6b43ac78ba3",
          "topics": [
            "0xda9fa7c1b00402c17d0161b249b1ab8bbec047c5a52207b9c112deffd817036b",
            "0x0000000000000000000000002830c21eca4d3f7b5d4e7b7ab4ca0d8c04025bf8",
            "0x00000000000000000000000090954dcfb08c84e1eba306f59fad660b3a7b5808",
            "0x000000000000000000000000429ba70129df741b2ca2a85bc3a2a3328e5c09b4"
          ],
          "data": "0x000000000000000000000000ffffffffffffffffffffffffffffffffffffffff0000000000000000000000000000000000000000000000000000ffffffffffff",
          "blockHash": "0x561b449705362c1862473cd912bbaf81a611a0f71c56dde018334bc00d22bcb3",
          "blockNumber": "0x862864",
          "transactionHash": "0x971b6328bda3cb48707df8ca671ea5f4b4fb48a83938a1aa3456f8dc4db5f9ec",
          "transactionIndex": "0x97",
          "logIndex": "0x143",
          "removed": false
        }
      ],
      "logsBloom": "0x00010000000000000000000000000000000000000000000000000000000000000000000000000040080000000000000000000000000000000000000000080000001000000000000000000000000000000000000000000000000000000008000000000000000000000000000000000000000000000000000000000800000000000020000000000000000000000000000000020000000000000000000000000000000000040000000000000000000000000000000000000000000000080000000000000000000000000000000000000000000000000000000040000000000000000400000000000000000000000000008000000000000000000000000000000400",
      "type": "0x2",
      "transactionHash": "0x971b6328bda3cb48707df8ca671ea5f4b4fb48a83938a1aa3456f8dc4db5f9ec",
      "transactionIndex": "0x97",
      "blockHash": "0x561b449705362c1862473cd912bbaf81a611a0f71c56dde018334bc00d22bcb3",
      "blockNumber": "0x862864",
      "gasUsed": "0x6d0e",
      "effectiveGasPrice": "0x12272a",
      "from": "0x2830c21eca4d3f7b5d4e7b7ab4ca0d8c04025bf8",
      "to": "0x000000000022d473030f116ddee9f6b43ac78ba3",
      "contractAddress": null
    }
  ],
  "libraries": [],
  "pending": [],
  "returns": {},
  "timestamp": 1752861049,
  "chain": 11155111,
  "commit": "9870984"
}