{
  "transactions": [
    {
      "hash": "0xce92c102ef5ac6947f12d25b28859490b61b763f1aee0de2f4592126a8915f55",
      "transactionType": "CALL",
      "contractName": null,
      "contractAddress": "0x1c7d4b196cb0c7b01d743fbc6116a902379c7238",
      "function": "approve(address,uint256)",
      "arguments": [
        "0x194CC08EFeD09BE41E94b9Bb4c5Aa265662B428e",
        "115792089237316195423570985008687907853269984665640564039457584007913129639935"
      ],
      "transaction": {
        "from": "0x2830c21eca4d3f7b5d4e7b7ab4ca0d8c04025bf8",
        "to": "0x1c7d4b196cb0c7b01d743fbc6116a902379c7238",
        "gas": "0xd0b8",
        "value": "0x0",
        "input": "0x095ea7b3000000000000000000000000194cc08efed09be41e94b9bb4c5aa265662b428effffffffffffffffffffffffffffffffffffffffffffffffffffffffffffffff",
        "nonce": "0xe6",
        "chainId": "0xaa36a7"
      },
      "additionalContracts": [],
      "isFixedGasLimit": false
    },
    {
      "hash": "0x782f98dfc5859a24e6d1af035bba932a947d582031a50c576ba6d6800d995b89",
      "transactionType": "CALL",
      "contractName": null,
      "contractAddress": "0x90954dcfb08c84e1eba306f59fad660b3a7b5808",
      "function": "approve(address,uint256)",
      "arguments": [
        "0x00000000000044a361Ae3cAc094c9D1b14Eece97",
        "115792089237316195423570985008687907853269984665640564039457584007913129639935"
      ],
      "transaction": {
        "from": "0x2830c21eca4d3f7b5d4e7b7ab4ca0d8c04025bf8",
        "to": "0x90954dcfb08c84e1eba306f59fad660b3a7b5808",
        "gas": "0x9322",
        "value": "0x0",
        "input": "0x095ea7b300000000000000000000000000000000000044a361ae3cac094c9d1b14eece97ffffffffffffffffffffffffffffffffffffffffffffffffffffffffffffffff",
        "nonce": "0xe7",
        "chainId": "0xaa36a7"
      },
      "additionalContracts": [],
      "isFixedGasLimit": false
    },
    {
      "hash": "0x41a4fd5f28f194c220d90576a8705415a40a7bb7d2956779a471f0eceab75974",
      "transactionType": "CALL",
      "contractName": null,
      "contractAddress": "0x3b4c3885e8144af60a101c75468727863cff23fa",
      "function": "approve(address,uint256)",
      "arguments": [
        "0x00000000000044a361Ae3cAc094c9D1b14Eece97",
        "115792089237316195423570985008687907853269984665640564039457584007913129639935"
      ],
      "transaction": {
        "from": "0x2830c21eca4d3f7b5d4e7b7ab4ca0d8c04025bf8",
        "to": "0x3b4c3885e8144af60a101c75468727863cff23fa",
        "gas": "0x963b",
        "value": "0x0",
        "input": "0x095ea7b300000000000000000000000000000000000044a361ae3cac094c9d1b14eece97ffffffffffffffffffffffffffffffffffffffffffffffffffffffffffffffff",
        "nonce": "0xe8",
        "chainId": "0xaa36a7"
      },
      "additionalContracts": [],
      "isFixedGasLimit": false
    },
    {
      "hash": "0xc1f85805ce38390f094a53e9fa8e151ad0cef139c90e0e793cf9c29d8d596fbb",
      "transactionType": "CALL",
      "contractName": null,
      "contractAddress": "0x00000000000044a361ae3cac094c9d1b14eece97",
      "function": "swapExactTokensForTokens(uint256,uint256,bool,(address,address,uint24,int24,address),bytes,address,uint256)",
      "arguments": [
        "1000000",
        "0",
        "true",
        "(0x3B4c3885E8144af60A101c75468727863cFf23fA, 0x90954dcFB08C84e1ebA306f59FAD660b3A7B5808, 3000, 60, 0xc9e902b5047433935C8f6B173fC936Fd696C00c0)",
        "0x00000000000000000000000000000000000000000000000000000000000000010000000000000000000000002830c21eca4d3f7b5d4e7b7ab4ca0d8c04025bf8",
        "0x2830C21ecA4d3F7b5D4e7b7AB4ca0D8C04025bf8",
        "1752531576"
      ],
      "transaction": {
        "from": "0x2830c21eca4d3f7b5d4e7b7ab4ca0d8c04025bf8",
        "to": "0x00000000000044a361ae3cac094c9d1b14eece97",
        "gas": "0x3f2ab",
        "value": "0x0",
        "input": "0xb1a0d57100000000000000000000000000000000000000000000000000000000000f4240000000000000000000000000000000000000000000000000000000000000000000000000000000000000000000000000000000000000000000000000000000010000000000000000000000003b4c3885e8144af60a101c75468727863cff23fa00000000000000000000000090954dcfb08c84e1eba306f59fad660b3a7b58080000000000000000000000000000000000000000000000000000000000000bb8000000000000000000000000000000000000000000000000000000000000003c000000000000000000000000c9e902b5047433935c8f6b173fc936fd696c00c000000000000000000000000000000000000000000000000000000000000001600000000000000000000000002830c21eca4d3f7b5d4e7b7ab4ca0d8c04025bf80000000000000000000000000000000000000000000000000000000068758278000000000000000000000000000000000000000000000000000000000000004000000000000000000000000000000000000000000000000000000000000000010000000000000000000000002830c21eca4d3f7b5d4e7b7ab4ca0d8c04025bf8",
        "nonce": "0xe9",
        "chainId": "0xaa36a7"
      },
      "additionalContracts": [],
      "isFixedGasLimit": false
    }
  ],
  "receipts": [
    {
      "status": "0x1",
      "cumulativeGasUsed": "0x11a66ac",
      "logs": [
        {
          "address": "0x1c7d4b196cb0c7b01d743fbc6116a902379c7238",
          "topics": [
            "0x8c5be1e5ebec7d5bd14f71427d1e84f3dd0314c0f7b2291e5b200ac8c7c3b925",
            "0x0000000000000000000000002830c21eca4d3f7b5d4e7b7ab4ca0d8c04025bf8",
            "0x000000000000000000000000194cc08efed09be41e94b9bb4c5aa265662b428e"
          ],
          "data": "0xffffffffffffffffffffffffffffffffffffffffffffffffffffffffffffffff",
          "blockHash": "0x9d47324a938884934b67693a443f9f443f9054d864a5b577f88c9609fb27797c",
          "blockNumber": "0x85bde9",
          "transactionHash": "0xce92c102ef5ac6947f12d25b28859490b61b763f1aee0de2f4592126a8915f55",
          "transactionIndex": "0x66",
          "logIndex": "0xad",
          "removed": false
        }
      ],
      "logsBloom": "0x00000000000000000000000000000000000000000000000000000000000200000000004000000000000000000000000000000000000000000000000000200000000000000000000000000000000000000000000000000000000000000008000000000400000000000000000000000000000000000000000000000000000000000000000000100000000000000000000000000000000000000000000000000000020000000000000000000000000000000000000000000000000000000000000000000000000000000000000000000000000000000000000000000000000000000510000000000000000010000000008000000000000000000000000000000000",
      "type": "0x2",
      "transactionHash": "0xce92c102ef5ac6947f12d25b28859490b61b763f1aee0de2f4592126a8915f55",
      "transactionIndex": "0x66",
      "blockHash": "0x9d47324a938884934b67693a443f9f443f9054d864a5b577f88c9609fb27797c",
      "blockNumber": "0x85bde9",
      "gasUsed": "0x971d",
      "effectiveGasPrice": "0xf491e",
      "from": "0x2830c21eca4d3f7b5d4e7b7ab4ca0d8c04025bf8",
      "to": "0x1c7d4b196cb0c7b01d743fbc6116a902379c7238",
      "contractAddress": null
    },
    {
      "status": "0x1",
      "cumulativeGasUsed": "0x11ad132",
      "logs": [
        {
          "address": "0x90954dcfb08c84e1eba306f59fad660b3a7b5808",
          "topics": [
            "0x8c5be1e5ebec7d5bd14f71427d1e84f3dd0314c0f7b2291e5b200ac8c7c3b925",
            "0x0000000000000000000000002830c21eca4d3f7b5d4e7b7ab4ca0d8c04025bf8",
            "0x00000000000000000000000000000000000044a361ae3cac094c9d1b14eece97"
          ],
          "data": "0xffffffffffffffffffffffffffffffffffffffffffffffffffffffffffffffff",
          "blockHash": "0x9d47324a938884934b67693a443f9f443f9054d864a5b577f88c9609fb27797c",
          "blockNumber": "0x85bde9",
          "transactionHash": "0x782f98dfc5859a24e6d1af035bba932a947d582031a50c576ba6d6800d995b89",
          "transactionIndex": "0x67",
          "logIndex": "0xae",
          "removed": false
        }
      ],
      "logsBloom": "0x00000000000000000000000000000000000000000000000000000000000000000000000000000000000000000000000000000000000000000000000040200000000000000000000000000000000000000000000020000000000000000008000000000000000000000000000000000000000100000000000000000000000040000000000000000000000000000000000000000000000000000000000000000000020000000000000000000000000000000000000000000000000000000000000000000000000020000000000000000000000000000000000000000000000000010410000000000000000000000000008000000000000000000000000000000000",
      "type": "0x2",
      "transactionHash": "0x782f98dfc5859a24e6d1af035bba932a947d582031a50c576ba6d6800d995b89",
      "transactionIndex": "0x67",
      "blockHash": "0x9d47324a938884934b67693a443f9f443f9054d864a5b577f88c9609fb27797c",
      "blockNumber": "0x85bde9",
      "gasUsed": "0x6a86",
      "effectiveGasPrice": "0xf491e",
      "from": "0x2830c21eca4d3f7b5d4e7b7ab4ca0d8c04025bf8",
      "to": "0x90954dcfb08c84e1eba306f59fad660b3a7b5808",
      "contractAddress": null
    },
    {
      "status": "0x1",
      "cumulativeGasUsed": "0x11b37eb",
      "logs": [
        {
          "address": "0x3b4c3885e8144af60a101c75468727863cff23fa",
          "topics": [
            "0x8c5be1e5ebec7d5bd14f71427d1e84f3dd0314c0f7b2291e5b200ac8c7c3b925",
            "0x0000000000000000000000002830c21eca4d3f7b5d4e7b7ab4ca0d8c04025bf8",
            "0x00000000000000000000000000000000000044a361ae3cac094c9d1b14eece97"
          ],
          "data": "0xffffffffffffffffffffffffffffffffffffffffffffffffffffffffffffffff",
          "blockHash": "0x9d47324a938884934b67693a443f9f443f9054d864a5b577f88c9609fb27797c",
          "blockNumber": "0x85bde9",
          "transactionHash": "0x41a4fd5f28f194c220d90576a8705415a40a7bb7d2956779a471f0eceab75974",
          "transactionIndex": "0x68",
          "logIndex": "0xaf",
          "removed": false
        }
      ],
      "logsBloom": "0x00000000000000000000000000000000000000002000000000000000000000000000000000000000000000000000000000000000000000000000000040200000000000000000000000000000000000000000000000000000000000800008000000000000000000000000000000000000000000000000000000000000000040000000000000000008000000000000000000000000000000000000000000000000020000000000000000000000000000000000000000000000000000000000000000000000000000000000000000000000000000000000000000000000000000010410000000000000000000000000008000000000000000000000000000000000",
      "type": "0x2",
      "transactionHash": "0x41a4fd5f28f194c220d90576a8705415a40a7bb7d2956779a471f0eceab75974",
      "transactionIndex": "0x68",
      "blockHash": "0x9d47324a938884934b67693a443f9f443f9054d864a5b577f88c9609fb27797c",
      "blockNumber": "0x85bde9",
      "gasUsed": "0x66b9",
      "effectiveGasPrice": "0xf491e",
      "from": "0x2830c21eca4d3f7b5d4e7b7ab4ca0d8c04025bf8",
      "to": "0x3b4c3885e8144af60a101c75468727863cff23fa",
      "contractAddress": null
    },
    {
      "status": "0x1",
      "cumulativeGasUsed": "0x11e3bd9",
      "logs": [
        {
          "address": "0x1c7d4b196cb0c7b01d743fbc6116a902379c7238",
          "topics": [
            "0xddf252ad1be2c89b69c2b068fc378daa952ba7f163c4a11628f55a4df523b3ef",
            "0x0000000000000000000000002830c21eca4d3f7b5d4e7b7ab4ca0d8c04025bf8",
            "0x000000000000000000000000194cc08efed09be41e94b9bb4c5aa265662b428e"
          ],
          "data": "0x0000000000000000000000000000000000000000000000000000000000000005",
          "blockHash": "0x9d47324a938884934b67693a443f9f443f9054d864a5b577f88c9609fb27797c",
          "blockNumber": "0x85bde9",
          "transactionHash": "0xc1f85805ce38390f094a53e9fa8e151ad0cef139c90e0e793cf9c29d8d596fbb",
          "transactionIndex": "0x69",
          "logIndex": "0xb0",
          "removed": false
        },
        {
          "address": "0x194cc08efed09be41e94b9bb4c5aa265662b428e",
          "topics": [
            "0x18915d317bad4db12ff345e5f7f9619b5d0298928c09cbe4bee5c864f315b0b9",
            "0x0000000000000000000000002830c21eca4d3f7b5d4e7b7ab4ca0d8c04025bf8"
          ],
          "data": "0x00000000000000000000000000000000000000000000000000000000000000050000000000000000000000000000000000000000000000000006133c6690e000",
          "blockHash": "0x9d47324a938884934b67693a443f9f443f9054d864a5b577f88c9609fb27797c",
          "blockNumber": "0x85bde9",
          "transactionHash": "0xc1f85805ce38390f094a53e9fa8e151ad0cef139c90e0e793cf9c29d8d596fbb",
          "transactionIndex": "0x69",
          "logIndex": "0xb1",
          "removed": false
        },
        {
          "address": "0xe03a1074c86cfedd5c142c4f04f1a1536e203543",
          "topics": [
            "0x40e9cecb9f5f1f1c5b9c97dec2917b7ee92e57ba5563708daca94dd84ad7112f",
            "0x4e8851e31d32848b9d32e9b388421cc0129b43a827b1dd1c80450cb56ff0924d",
            "0x00000000000000000000000000000000000044a361ae3cac094c9d1b14eece97"
          ],
          "data": "0xfffffffffffffffffffffffffffffffffffffffffffffffffffffffffff0bdc000000000000000000000000000000000000000000000000000000000000107d4000000000000000000000000000000000000000042a17ef08aef2c42cda649c90000000000000000000000000000000000000000000000000e9ae3d533801a47ffffffffffffffffffffffffffffffffffffffffffffffffffffffffffff96d60000000000000000000000000000000000000000000000000000000000000bb8",
          "blockHash": "0x9d47324a938884934b67693a443f9f443f9054d864a5b577f88c9609fb27797c",
          "blockNumber": "0x85bde9",
          "transactionHash": "0xc1f85805ce38390f094a53e9fa8e151ad0cef139c90e0e793cf9c29d8d596fbb",
          "transactionIndex": "0x69",
          "logIndex": "0xb2",
          "removed": false
        },
        {
          "address": "0xc9e902b5047433935c8f6b173fc936fd696c00c0",
          "topics": [
            "0x18915d317bad4db12ff345e5f7f9619b5d0298928c09cbe4bee5c864f315b0b9",
            "0x0000000000000000000000002830c21eca4d3f7b5d4e7b7ab4ca0d8c04025bf8"
          ],
          "data": "0x0000000000000000000000000000000000000000000000000000000000000000000000000000000000000000000000000000000000000000000000000001bcdc",
          "blockHash": "0x9d47324a938884934b67693a443f9f443f9054d864a5b577f88c9609fb27797c",
          "blockNumber": "0x85bde9",
          "transactionHash": "0xc1f85805ce38390f094a53e9fa8e151ad0cef139c90e0e793cf9c29d8d596fbb",
          "transactionIndex": "0x69",
          "logIndex": "0xb3",
          "removed": false
        },
        {
          "address": "0x3b4c3885e8144af60a101c75468727863cff23fa",
          "topics": [
            "0xddf252ad1be2c89b69c2b068fc378daa952ba7f163c4a11628f55a4df523b3ef",
            "0x0000000000000000000000002830c21eca4d3f7b5d4e7b7ab4ca0d8c04025bf8",
            "0x000000000000000000000000e03a1074c86cfedd5c142c4f04f1a1536e203543"
          ],
          "data": "0x00000000000000000000000000000000000000000000000000000000000f4240",
          "blockHash": "0x9d47324a938884934b67693a443f9f443f9054d864a5b577f88c9609fb27797c",
          "blockNumber": "0x85bde9",
          "transactionHash": "0xc1f85805ce38390f094a53e9fa8e151ad0cef139c90e0e793cf9c29d8d596fbb",
          "transactionIndex": "0x69",
          "logIndex": "0xb4",
          "removed": false
        },
        {
          "address": "0x90954dcfb08c84e1eba306f59fad660b3a7b5808",
          "topics": [
            "0xddf252ad1be2c89b69c2b068fc378daa952ba7f163c4a11628f55a4df523b3ef",
            "0x000000000000000000000000e03a1074c86cfedd5c142c4f04f1a1536e203543",
            "0x0000000000000000000000002830c21eca4d3f7b5d4e7b7ab4ca0d8c04025bf8"
          ],
          "data": "0x00000000000000000000000000000000000000000000000000000000000107d4",
          "blockHash": "0x9d47324a938884934b67693a443f9f443f9054d864a5b577f88c9609fb27797c",
          "blockNumber": "0x85bde9",
          "transactionHash": "0xc1f85805ce38390f094a53e9fa8e151ad0cef139c90e0e793cf9c29d8d596fbb",
          "transactionIndex": "0x69",
          "logIndex": "0xb5",
          "removed": false
        }
      ],
      "logsBloom": "0x00040000010000000000000000000080000000002000000000000000000200000000004000000000000000000000000000210100040000008000000040000000000000000000000000000028000001000000000020000020000000800008000000000400000000000000000080000000000100000000100000000010000040000200000000100008000010000000000080000000000000000000000000000000000000000000000000000000000000080000000000000000000000000000000000000002000020000040000000000000000000000000000000001000000000011500000000000000004010000000008000000000000000000000000000000000",
      "type": "0x2",
      "transactionHash": "0xc1f85805ce38390f094a53e9fa8e151ad0cef139c90e0e793cf9c29d8d596fbb",
      "transactionIndex": "0x69",
      "blockHash": "0x9d47324a938884934b67693a443f9f443f9054d864a5b577f88c9609fb27797c",
      "blockNumber": "0x85bde9",
      "gasUsed": "0x303ee",
      "effectiveGasPrice": "0xf491e",
      "from": "0x2830c21eca4d3f7b5d4e7b7ab4ca0d8c04025bf8",
      "to": "0x00000000000044a361ae3cac094c9d1b14eece97",
      "contractAddress": null
    }
  ],
  "libraries": [],
  "pending": [],
  "returns": {},
  "timestamp": 1752528038,
  "chain": 11155111,
  "commit": "9870984"
}