{
  "transactions": [
    {
      "hash": "0x25a8f5b80b73705848146a5f9c324a4861125a5dcbf7576e98d5082f10d173a7",
      "transactionType": "CALL",
      "contractName": null,
      "contractAddress": "0x3b4c3885e8144af60a101c75468727863cff23fa",
      "function": "approve(address,uint256)",
      "arguments": [
        "0x000000000022D473030F116dDEE9F6B43aC78BA3",
        "115792089237316195423570985008687907853269984665640564039457584007913129639935"
      ],
      "transaction": {
        "from": "0x2830c21eca4d3f7b5d4e7b7ab4ca0d8c04025bf8",
        "to": "0x3b4c3885e8144af60a101c75468727863cff23fa",
        "gas": "0x8df2",
        "value": "0x0",
        "input": "0x095ea7b3000000000000000000000000000000000022d473030f116ddee9f6b43ac78ba3ffffffffffffffffffffffffffffffffffffffffffffffffffffffffffffffff",
        "nonce": "0xfd",
        "chainId": "0xaa36a7"
      },
      "additionalContracts": [],
      "isFixedGasLimit": false
    },
    {
      "hash": "0xd7d4b8f56b25e4940b631637db3b394dbfd54fa57bcbbb93fba19bbb1a276df0",
      "transactionType": "CALL",
      "contractName": null,
      "contractAddress": "0x000000000022d473030f116ddee9f6b43ac78ba3",
      "function": "approve(address,address,uint160,uint48)",
      "arguments": [
        "0x3B4c3885E8144af60A101c75468727863cFf23fA",
        "0x429ba70129df741B2Ca2a85BC3A2a3328e5c09b4",
        "1461501637330902918203684832716283019655932542975",
        "281474976710655"
      ],
      "transaction": {
        "from": "0x2830c21eca4d3f7b5d4e7b7ab4ca0d8c04025bf8",
        "to": "0x000000000022d473030f116ddee9f6b43ac78ba3",
        "gas": "0x96a0",
        "value": "0x0",
        "input": "0x87517c450000000000000000000000003b4c3885e8144af60a101c75468727863cff23fa000000000000000000000000429ba70129df741b2ca2a85bc3a2a3328e5c09b4000000000000000000000000ffffffffffffffffffffffffffffffffffffffff0000000000000000000000000000000000000000000000000000ffffffffffff",
        "nonce": "0xfe",
        "chainId": "0xaa36a7"
      },
      "additionalContracts": [],
      "isFixedGasLimit": false
    },
    {
      "hash": "0xa159d4a1d1b65f3c48b7ce464966e4328aedcceb1895fbc077a1dacfdc1e8183",
      "transactionType": "CALL",
      "contractName": null,
      "contractAddress": "0x90954dcfb08c84e1eba306f59fad660b3a7b5808",
      "function": "approve(address,uint256)",
      "arguments": [
        "0x000000000022D473030F116dDEE9F6B43aC78BA3",
        "115792089237316195423570985008687907853269984665640564039457584007913129639935"
      ],
      "transaction": {
        "from": "0x2830c21eca4d3f7b5d4e7b7ab4ca0d8c04025bf8",
        "to": "0x90954dcfb08c84e1eba306f59fad660b3a7b5808",
        "gas": "0x9bdb",
        "value": "0x0",
        "input": "0x095ea7b3000000000000000000000000000000000022d473030f116ddee9f6b43ac78ba3ffffffffffffffffffffffffffffffffffffffffffffffffffffffffffffffff",
        "nonce": "0xff",
        "chainId": "0xaa36a7"
      },
      "additionalContracts": [],
      "isFixedGasLimit": false
    },
    {
      "hash": "0x9fc43ddab60b1c7aaa79f3e0b8df16f21e275d2b329a4766196ff1aa3080e901",
      "transactionType": "CALL",
      "contractName": null,
      "contractAddress": "0x000000000022d473030f116ddee9f6b43ac78ba3",
      "function": "approve(address,address,uint160,uint48)",
      "arguments": [
        "0x90954dcFB08C84e1ebA306f59FAD660b3A7B5808",
        "0x429ba70129df741B2Ca2a85BC3A2a3328e5c09b4",
        "1461501637330902918203684832716283019655932542975",
        "281474976710655"
      ],
      "transaction": {
        "from": "0x2830c21eca4d3f7b5d4e7b7ab4ca0d8c04025bf8",
        "to": "0x000000000022d473030f116ddee9f6b43ac78ba3",
        "gas": "0x96a0",
        "value": "0x0",
        "input": "0x87517c4500000000000000000000000090954dcfb08c84e1eba306f59fad660b3a7b5808000000000000000000000000429ba70129df741b2ca2a85bc3a2a3328e5c09b4000000000000000000000000ffffffffffffffffffffffffffffffffffffffff0000000000000000000000000000000000000000000000000000ffffffffffff",
        "nonce": "0x100",
        "chainId": "0xaa36a7"
      },
      "additionalContracts": [],
      "isFixedGasLimit": false
    },
    {
      "hash": "0x280d64c97670913808b7675ae0079e045129f41f28147fc75cdc0d97188b6e68",
      "transactionType": "CALL",
      "contractName": null,
      "contractAddress": "0x429ba70129df741b2ca2a85bc3a2a3328e5c09b4",
      "function": "multicall(bytes[])",
      "arguments": [
        "[0xf70204050000000000000000000000003b4c3885e8144af60a101c75468727863cff23fa00000000000000000000000090954dcfb08c84e1eba306f59fad660b3a7b580800000000000000000000000000000000000000000000000000000000000013880000000000000000000000000000000000000000000000000000000000000064000000000000000000000000c9e902b5047433935c8f6b173fc936fd696c00c0000000000000000000000000000000000000000100000000000000000000000000000000000000000000000000000000000000000000000000000000000000e00000000000000000000000000000000000000000000000000000000000000000, 0xdd46508f000000000000000000000000000000000000000000000000000000000000004000000000000000000000000000000000000000000000000000000000687a9c500000000000000000000000000000000000000000000000000000000000000400000000000000000000000000000000000000000000000000000000000000004000000000000000000000000000000000000000000000000000000000000000800000000000000000000000000000000000000000000000000000000000000004020d14140000000000000000000000000000000000000000000000000000000000000000000000000000000000000000000000000000000000000000000000040000000000000000000000000000000000000000000000000000000000000080000000000000000000000000000000000000000000000000000000000000024000000000000000000000000000000000000000000000000000000000000002a0000000000000000000000000000000000000000000000000000000000000030000000000000000000000000000000000000000000000000000000000000001a00000000000000000000000003b4c3885e8144af60a101c75468727863cff23fa00000000000000000000000090954dcfb08c84e1eba306f59fad660b3a7b580800000000000000000000000000000000000000000000000000000000000013880000000000000000000000000000000000000000000000000000000000000064000000000000000000000000c9e902b5047433935c8f6b173fc936fd696c00c0fffffffffffffffffffffffffffffffffffffffffffffffffffffffffffedb0800000000000000000000000000000000000000000000000000000000000124f80000000000000000000000000000000000000000000000000e364b50c0bf8e630000000000000000000000000000000000000000000000000de0b6b3a76400010000000000000000000000000000000000000000000000000de0b6b3a76400010000000000000000000000002830c21eca4d3f7b5d4e7b7ab4ca0d8c04025bf80000000000000000000000000000000000000000000000000000000000000180000000000000000000000000000000000000000000000000000000000000000000000000000000000000000000000000000000000000000000000000000000400000000000000000000000003b4c3885e8144af60a101c75468727863cff23fa00000000000000000000000090954dcfb08c84e1eba306f59fad660b3a7b580800000000000000000000000000000000000000000000000000000000000000400000000000000000000000003b4c3885e8144af60a101c75468727863cff23fa0000000000000000000000002830c21eca4d3f7b5d4e7b7ab4ca0d8c04025bf8000000000000000000000000000000000000000000000000000000000000004000000000000000000000000090954dcfb08c84e1eba306f59fad660b3a7b58080000000000000000000000002830c21eca4d3f7b5d4e7b7ab4ca0d8c04025bf8]"
      ],
      "transaction": {
        "from": "0x2830c21eca4d3f7b5d4e7b7ab4ca0d8c04025bf8",
        "to": "0x429ba70129df741b2ca2a85bc3a2a3328e5c09b4",
        "gas": "0x54d45",
        "value": "0x0",
        "input": "0xac9650d800000000000000000000000000000000000000000000000000000000000000200000000000000000000000000000000000000000000000000000000000000002000000000000000000000000000000000000000000000000000000000000004000000000000000000000000000000000000000000000000000000000000001800000000000000000000000000000000000000000000000000000000000000104f70204050000000000000000000000003b4c3885e8144af60a101c75468727863cff23fa00000000000000000000000090954dcfb08c84e1eba306f59fad660b3a7b580800000000000000000000000000000000000000000000000000000000000013880000000000000000000000000000000000000000000000000000000000000064000000000000000000000000c9e902b5047433935c8f6b173fc936fd696c00c0000000000000000000000000000000000000000100000000000000000000000000000000000000000000000000000000000000000000000000000000000000e00000000000000000000000000000000000000000000000000000000000000000000000000000000000000000000000000000000000000000000000000000000000000000000000000000000000000000000000000000000000000464dd46508f000000000000000000000000000000000000000000000000000000000000004000000000000000000000000000000000000000000000000000000000687a9c500000000000000000000000000000000000000000000000000000000000000400000000000000000000000000000000000000000000000000000000000000004000000000000000000000000000000000000000000000000000000000000000800000000000000000000000000000000000000000000000000000000000000004020d14140000000000000000000000000000000000000000000000000000000000000000000000000000000000000000000000000000000000000000000000040000000000000000000000000000000000000000000000000000000000000080000000000000000000000000000000000000000000000000000000000000024000000000000000000000000000000000000000000000000000000000000002a0000000000000000000000000000000000000000000000000000000000000030000000000000000000000000000000000000000000000000000000000000001a00000000000000000000000003b4c3885e8144af60a101c75468727863cff23fa00000000000000000000000090954dcfb08c84e1eba306f59fad660b3a7b580800000000000000000000000000000000000000000000000000000000000013880000000000000000000000000000000000000000000000000000000000000064000000000000000000000000c9e902b5047433935c8f6b173fc936fd696c00c0fffffffffffffffffffffffffffffffffffffffffffffffffffffffffffedb0800000000000000000000000000000000000000000000000000000000000124f80000000000000000000000000000000000000000000000000e364b50c0bf8e630000000000000000000000000000000000000000000000000de0b6b3a76400010000000000000000000000000000000000000000000000000de0b6b3a76400010000000000000000000000002830c21eca4d3f7b5d4e7b7ab4ca0d8c04025bf80000000000000000000000000000000000000000000000000000000000000180000000000000000000000000000000000000000000000000000000000000000000000000000000000000000000000000000000000000000000000000000000400000000000000000000000003b4c3885e8144af60a101c75468727863cff23fa00000000000000000000000090954dcfb08c84e1eba306f59fad660b3a7b580800000000000000000000000000000000000000000000000000000000000000400000000000000000000000003b4c3885e8144af60a101c75468727863cff23fa0000000000000000000000002830c21eca4d3f7b5d4e7b7ab4ca0d8c04025bf8000000000000000000000000000000000000000000000000000000000000004000000000000000000000000090954dcfb08c84e1eba306f59fad660b3a7b58080000000000000000000000002830c21eca4d3f7b5d4e7b7ab4ca0d8c04025bf800000000000000000000000000000000000000000000000000000000",
        "nonce": "0x101",
        "chainId": "0xaa36a7"
      },
      "additionalContracts": [],
      "isFixedGasLimit": false
    }
  ],
  "receipts": [
    {
      "status": "0x1",
      "cumulativeGasUsed": "0x17914f3",
      "logs": [
        {
          "address": "0x3b4c3885e8144af60a101c75468727863cff23fa",
          "topics": [
            "0x8c5be1e5ebec7d5bd14f71427d1e84f3dd0314c0f7b2291e5b200ac8c7c3b925",
            "0x0000000000000000000000002830c21eca4d3f7b5d4e7b7ab4ca0d8c04025bf8",
            "0x000000000000000000000000000000000022d473030f116ddee9f6b43ac78ba3"
          ],
          "data": "0xffffffffffffffffffffffffffffffffffffffffffffffffffffffffffffffff",
          "blockHash": "0xd7d3901f9ec786676dbfa222434d0307f1b7b49568ce9ba8b5bb5f3b8d8946ed",
          "blockNumber": "0x8628cb",
          "transactionHash": "0x25a8f5b80b73705848146a5f9c324a4861125a5dcbf7576e98d5082f10d173a7",
          "transactionIndex": "0xac",
          "logIndex": "0x1b4",
          "removed": false
        }
      ],
      "logsBloom": "0x00000000000000000000000000000000000000002000000000000000000000000000000000000000000000000000000000000000800000000000000000200000000000000000000000004000000000000000000000000800000000800008000000000000000000000000000000000000000000000000000000000000000000000000000000000008000000000000000000000000000000000000000000000000020000000000000000000000000000000000000000000000000000000000000000000000000000000000000000000000000000000000000000000000000000000410000000000000000000000000008000000000000000000000000000000000",
      "type": "0x2",
      "transactionHash": "0x25a8f5b80b73705848146a5f9c324a4861125a5dcbf7576e98d5082f10d173a7",
      "transactionIndex": "0xac",
      "blockHash": "0xd7d3901f9ec786676dbfa222434d0307f1b7b49568ce9ba8b5bb5f3b8d8946ed",
      "blockNumber": "0x8628cb",
      "gasUsed": "0x66c5",
      "effectiveGasPrice": "0x128386",
      "from": "0x2830c21eca4d3f7b5d4e7b7ab4ca0d8c04025bf8",
      "to": "0x3b4c3885e8144af60a101c75468727863cff23fa",
      "contractAddress": null
    },
    {
      "status": "0x1",
      "cumulativeGasUsed": "0x1798201",
      "logs": [
        {
          "address": "0x000000000022d473030f116ddee9f6b43ac78ba3",
          "topics": [
            "0xda9fa7c1b00402c17d0161b249b1ab8bbec047c5a52207b9c112deffd817036b",
            "0x0000000000000000000000002830c21eca4d3f7b5d4e7b7ab4ca0d8c04025bf8",
            "0x0000000000000000000000003b4c3885e8144af60a101c75468727863cff23fa",
            "0x000000000000000000000000429ba70129df741b2ca2a85bc3a2a3328e5c09b4"
          ],
          "data": "0x000000000000000000000000ffffffffffffffffffffffffffffffffffffffff0000000000000000000000000000000000000000000000000000ffffffffffff",
          "blockHash": "0xd7d3901f9ec786676dbfa222434d0307f1b7b49568ce9ba8b5bb5f3b8d8946ed",
          "blockNumber": "0x8628cb",
          "transactionHash": "0xd7d4b8f56b25e4940b631637db3b394dbfd54fa57bcbbb93fba19bbb1a276df0",
          "transactionIndex": "0xad",
          "logIndex": "0x1b5",
          "removed": false
        }
      ],
      "logsBloom": "0x00010000000000000000000000000000000200000000000000000000000000000000000000000040080000000000000000000000000000000000000000080000000000000000000000000000000000000000000000000000000000000008000000000000000000000000000000000000000000000000000000000800000000000020000000000000000000000000000000000000000000000000000000000000000000000000000000000000000000000000000000000800000000080000000000000000000000000000000000000000000000000000000040000000000000000400000000000000000000000000008000000000000000000000000002000400",
      "type": "0x2",
      "transactionHash": "0xd7d4b8f56b25e4940b631637db3b394dbfd54fa57bcbbb93fba19bbb1a276df0",
      "transactionIndex": "0xad",
      "blockHash": "0xd7d3901f9ec786676dbfa222434d0307f1b7b49568ce9ba8b5bb5f3b8d8946ed",
      "blockNumber": "0x8628cb",
      "gasUsed": "0x6d0e",
      "effectiveGasPrice": "0x128386",
      "from": "0x2830c21eca4d3f7b5d4e7b7ab4ca0d8c04025bf8",
      "to": "0x000000000022d473030f116ddee9f6b43ac78ba3",
      "contractAddress": null
    },
    {
      "status": "0x1",
      "cumulativeGasUsed": "0x179ec93",
      "logs": [
        {
          "address": "0x90954dcfb08c84e1eba306f59fad660b3a7b5808",
          "topics": [
            "0x8c5be1e5ebec7d5bd14f71427d1e84f3dd0314c0f7b2291e5b200ac8c7c3b925",
            "0x0000000000000000000000002830c21eca4d3f7b5d4e7b7ab4ca0d8c04025bf8",
            "0x000000000000000000000000000000000022d473030f116ddee9f6b43ac78ba3"
          ],
          "data": "0xffffffffffffffffffffffffffffffffffffffffffffffffffffffffffffffff",
          "blockHash": "0xd7d3901f9ec786676dbfa222434d0307f1b7b49568ce9ba8b5bb5f3b8d8946ed",
          "blockNumber": "0x8628cb",
          "transactionHash": "0xa159d4a1d1b65f3c48b7ce464966e4328aedcceb1895fbc077a1dacfdc1e8183",
          "transactionIndex": "0xae",
          "logIndex": "0x1b6",
          "removed": false
        }
      ],
      "logsBloom": "0x00000000000000000000000000000000000000000000000000000000000000000000000000000000000000000000000000000000800000000000000000200000000000000000000000004000000000000000000020000800000000000008000000000000000000000000000000000000000100000000000000000000000000000000000000000000000000000000000000000000000000000000000000000000020000000000000000000000000000000000000000000000000000000000000000000000000020000000000000000000000000000000000000000000000000000410000000000000000000000000008000000000000000000000000000000000",
      "type": "0x2",
      "transactionHash": "0xa159d4a1d1b65f3c48b7ce464966e4328aedcceb1895fbc077a1dacfdc1e8183",
      "transactionIndex": "0xae",
      "blockHash": "0xd7d3901f9ec786676dbfa222434d0307f1b7b49568ce9ba8b5bb5f3b8d8946ed",
      "blockNumber": "0x8628cb",
      "gasUsed": "0x6a92",
      "effectiveGasPrice": "0x128386",
      "from": "0x2830c21eca4d3f7b5d4e7b7ab4ca0d8c04025bf8",
      "to": "0x90954dcfb08c84e1eba306f59fad660b3a7b5808",
      "contractAddress": null
    },
    {
      "status": "0x1",
      "cumulativeGasUsed": "0x17a59a1",
      "logs": [
        {
          "address": "0x000000000022d473030f116ddee9f6b43ac78ba3",
          "topics": [
            "0xda9fa7c1b00402c17d0161b249b1ab8bbec047c5a52207b9c112deffd817036b",
            "0x0000000000000000000000002830c21eca4d3f7b5d4e7b7ab4ca0d8c04025bf8",
            "0x00000000000000000000000090954dcfb08c84e1eba306f59fad660b3a7b5808",
            "0x000000000000000000000000429ba70129df741b2ca2a85bc3a2a3328e5c09b4"
          ],
          "data": "0x000000000000000000000000ffffffffffffffffffffffffffffffffffffffff0000000000000000000000000000000000000000000000000000ffffffffffff",
          "blockHash": "0xd7d3901f9ec786676dbfa222434d0307f1b7b49568ce9ba8b5bb5f3b8d8946ed",
          "blockNumber": "0x8628cb",
          "transactionHash": "0x9fc43ddab60b1c7aaa79f3e0b8df16f21e275d2b329a4766196ff1aa3080e901",
          "transactionIndex": "0xaf",
          "logIndex": "0x1b7",
          "removed": false
        }
      ],
      "logsBloom": "0x00010000000000000000000000000000000000000000000000000000000000000000000000000040080000000000000000000000000000000000000000080000001000000000000000000000000000000000000000000000000000000008000000000000000000000000000000000000000000000000000000000800000000000020000000000000000000000000000000020000000000000000000000000000000000040000000000000000000000000000000000000000000000080000000000000000000000000000000000000000000000000000000040000000000000000400000000000000000000000000008000000000000000000000000000000400",
      "type": "0x2",
      "transactionHash": "0x9fc43ddab60b1c7aaa79f3e0b8df16f21e275d2b329a4766196ff1aa3080e901",
      "transactionIndex": "0xaf",
      "blockHash": "0xd7d3901f9ec786676dbfa222434d0307f1b7b49568ce9ba8b5bb5f3b8d8946ed",
      "blockNumber": "0x8628cb",
      "gasUsed": "0x6d0e",
      "effectiveGasPrice": "0x128386",
      "from": "0x2830c21eca4d3f7b5d4e7b7ab4ca0d8c04025bf8",
      "to": "0x000000000022d473030f116ddee9f6b43ac78ba3",
      "contractAddress": null
    },
    {
      "status": "0x1",
      "cumulativeGasUsed": "0x17e3045",
      "logs": [
        {
          "address": "0x429ba70129df741b2ca2a85bc3a2a3328e5c09b4",
          "topics": [
            "0xddf252ad1be2c89b69c2b068fc378daa952ba7f163c4a11628f55a4df523b3ef",
            "0x0000000000000000000000000000000000000000000000000000000000000000",
            "0x0000000000000000000000002830c21eca4d3f7b5d4e7b7ab4ca0d8c04025bf8",
            "0x0000000000000000000000000000000000000000000000000000000000003af0"
          ],
          "data": "0x",
          "blockHash": "0xd7d3901f9ec786676dbfa222434d0307f1b7b49568ce9ba8b5bb5f3b8d8946ed",
          "blockNumber": "0x8628cb",
          "transactionHash": "0x280d64c97670913808b7675ae0079e045129f41f28147fc75cdc0d97188b6e68",
          "transactionIndex": "0xb0",
          "logIndex": "0x1b8",
          "removed": false
        },
        {
          "address": "0xe03a1074c86cfedd5c142c4f04f1a1536e203543",
          "topics": [
            "0xf208f4912782fd25c7f114ca3723a2d5dd6f3bcc3ac8db5af63baa85f711d5ec",
            "0xb272506abb36220e5ce3c7dbe1efa94c837896a6db8da2c7ae1211cbec1d31d4",
            "0x000000000000000000000000429ba70129df741b2ca2a85bc3a2a3328e5c09b4"
          ],
          "data": "0xfffffffffffffffffffffffffffffffffffffffffffffffffffffffffffedb0800000000000000000000000000000000000000000000000000000000000124f80000000000000000000000000000000000000000000000000e364b50c0bf8e630000000000000000000000000000000000000000000000000000000000003af0",
          "blockHash": "0xd7d3901f9ec786676dbfa222434d0307f1b7b49568ce9ba8b5bb5f3b8d8946ed",
          "blockNumber": "0x8628cb",
          "transactionHash": "0x280d64c97670913808b7675ae0079e045129f41f28147fc75cdc0d97188b6e68",
          "transactionIndex": "0xb0",
          "logIndex": "0x1b9",
          "removed": false
        },
        {
          "address": "0x3b4c3885e8144af60a101c75468727863cff23fa",
          "topics": [
            "0xddf252ad1be2c89b69c2b068fc378daa952ba7f163c4a11628f55a4df523b3ef",
            "0x0000000000000000000000002830c21eca4d3f7b5d4e7b7ab4ca0d8c04025bf8",
            "0x000000000000000000000000e03a1074c86cfedd5c142c4f04f1a1536e203543"
          ],
          "data": "0x0000000000000000000000000000000000000000000000000de0b6b3a7640000",
          "blockHash": "0xd7d3901f9ec786676dbfa222434d0307f1b7b49568ce9ba8b5bb5f3b8d8946ed",
          "blockNumber": "0x8628cb",
          "transactionHash": "0x280d64c97670913808b7675ae0079e045129f41f28147fc75cdc0d97188b6e68",
          "transactionIndex": "0xb0",
          "logIndex": "0x1ba",
          "removed": false
        },
        {
          "address": "0x90954dcfb08c84e1eba306f59fad660b3a7b5808",
          "topics": [
            "0xddf252ad1be2c89b69c2b068fc378daa952ba7f163c4a11628f55a4df523b3ef",
            "0x0000000000000000000000002830c21eca4d3f7b5d4e7b7ab4ca0d8c04025bf8",
            "0x000000000000000000000000e03a1074c86cfedd5c142c4f04f1a1536e203543"
          ],
          "data": "0x0000000000000000000000000000000000000000000000000de0b6b3a7640000",
          "blockHash": "0xd7d3901f9ec786676dbfa222434d0307f1b7b49568ce9ba8b5bb5f3b8d8946ed",
          "blockNumber": "0x8628cb",
          "transactionHash": "0x280d64c97670913808b7675ae0079e045129f41f28147fc75cdc0d97188b6e68",
          "transactionIndex": "0xb0",
          "logIndex": "0x1bb",
          "removed": false
        }
      ],
      "logsBloom": "0x00000000000000000000001000004000000000002000000000000000080000000000000000000040080000000000000000000100000000000000000000000000000000000000000400000008000000000000000020000000000000800008000000000000020000000000000080000800800100000000100000000810000000000000000001000008000010000000000000002000000000000000000000000000000004000000000000000000000000000000000000400000000000000000000000000002000020000000000000100000000000000000200000001000000020001400000000000000000000000000008004000000000000000000000000000000",
      "type": "0x2",
      "transactionHash": "0x280d64c97670913808b7675ae0079e045129f41f28147fc75cdc0d97188b6e68",
      "transactionIndex": "0xb0",
      "blockHash": "0xd7d3901f9ec786676dbfa222434d0307f1b7b49568ce9ba8b5bb5f3b8d8946ed",
      "blockNumber": "0x8628cb",
      "gasUsed": "0x3d6a4",
      "effectiveGasPrice": "0x128386",
      "from": "0x2830c21eca4d3f7b5d4e7b7ab4ca0d8c04025bf8",
      "to": "0x429ba70129df741b2ca2a85bc3a2a3328e5c09b4",
      "contractAddress": null
    }
  ],
  "libraries": [],
  "pending": [],
  "returns": {},
  "timestamp": 1752862321,
  "chain": 11155111,
  "commit": "9870984"
}