{
  "transactions": [
    {
      "hash": "0x37677488f2ad7ea3ea8b7794310e17b55e6c3dc68523a12695452e835ce8158e",
      "transactionType": "CALL",
      "contractName": null,
      "contractAddress": "0x3b4c3885e8144af60a101c75468727863cff23fa",
      "function": "approve(address,uint256)",
      "arguments": [
        "0x000000000022D473030F116dDEE9F6B43aC78BA3",
        "115792089237316195423570985008687907853269984665640564039457584007913129639935"
      ],
      "transaction": {
        "from": "0x2830c21eca4d3f7b5d4e7b7ab4ca0d8c04025bf8",
        "to": "0x3b4c3885e8144af60a101c75468727863cff23fa",
        "gas": "0x8df2",
        "value": "0x0",
        "input": "0x095ea7b3000000000000000000000000000000000022d473030f116ddee9f6b43ac78ba3ffffffffffffffffffffffffffffffffffffffffffffffffffffffffffffffff",
        "nonce": "0xf8",
        "chainId": "0xaa36a7"
      },
      "additionalContracts": [],
      "isFixedGasLimit": false
    },
    {
      "hash": "0xd670d35b25a2d13747b787eed5d0b46c993184f2e3100ea1038f058f88c5d0cc",
      "transactionType": "CALL",
      "contractName": null,
      "contractAddress": "0x000000000022d473030f116ddee9f6b43ac78ba3",
      "function": "approve(address,address,uint160,uint48)",
      "arguments": [
        "0x3B4c3885E8144af60A101c75468727863cFf23fA",
        "0x429ba70129df741B2Ca2a85BC3A2a3328e5c09b4",
        "1461501637330902918203684832716283019655932542975",
        "281474976710655"
      ],
      "transaction": {
        "from": "0x2830c21eca4d3f7b5d4e7b7ab4ca0d8c04025bf8",
        "to": "0x000000000022d473030f116ddee9f6b43ac78ba3",
        "gas": "0x96a0",
        "value": "0x0",
        "input": "0x87517c450000000000000000000000003b4c3885e8144af60a101c75468727863cff23fa000000000000000000000000429ba70129df741b2ca2a85bc3a2a3328e5c09b4000000000000000000000000ffffffffffffffffffffffffffffffffffffffff0000000000000000000000000000000000000000000000000000ffffffffffff",
        "nonce": "0xf9",
        "chainId": "0xaa36a7"
      },
      "additionalContracts": [],
      "isFixedGasLimit": false
    },
    {
      "hash": "0xdc99d21e4ab15878e3d03d6e75cd9f2f4365e0259feb9fc55b24dc0bed8b7db3",
      "transactionType": "CALL",
      "contractName": null,
      "contractAddress": "0x90954dcfb08c84e1eba306f59fad660b3a7b5808",
      "function": "approve(address,uint256)",
      "arguments": [
        "0x000000000022D473030F116dDEE9F6B43aC78BA3",
        "115792089237316195423570985008687907853269984665640564039457584007913129639935"
      ],
      "transaction": {
        "from": "0x2830c21eca4d3f7b5d4e7b7ab4ca0d8c04025bf8",
        "to": "0x90954dcfb08c84e1eba306f59fad660b3a7b5808",
        "gas": "0x9bdb",
        "value": "0x0",
        "input": "0x095ea7b3000000000000000000000000000000000022d473030f116ddee9f6b43ac78ba3ffffffffffffffffffffffffffffffffffffffffffffffffffffffffffffffff",
        "nonce": "0xfa",
        "chainId": "0xaa36a7"
      },
      "additionalContracts": [],
      "isFixedGasLimit": false
    },
    {
      "hash": "0xf78740949d3019d3f162bcf51b49f992c36c37e533167f7ce1d6f7ef17ed9a28",
      "transactionType": "CALL",
      "contractName": null,
      "contractAddress": "0x000000000022d473030f116ddee9f6b43ac78ba3",
      "function": "approve(address,address,uint160,uint48)",
      "arguments": [
        "0x90954dcFB08C84e1ebA306f59FAD660b3A7B5808",
        "0x429ba70129df741B2Ca2a85BC3A2a3328e5c09b4",
        "1461501637330902918203684832716283019655932542975",
        "281474976710655"
      ],
      "transaction": {
        "from": "0x2830c21eca4d3f7b5d4e7b7ab4ca0d8c04025bf8",
        "to": "0x000000000022d473030f116ddee9f6b43ac78ba3",
        "gas": "0x96a0",
        "value": "0x0",
        "input": "0x87517c4500000000000000000000000090954dcfb08c84e1eba306f59fad660b3a7b5808000000000000000000000000429ba70129df741b2ca2a85bc3a2a3328e5c09b4000000000000000000000000ffffffffffffffffffffffffffffffffffffffff0000000000000000000000000000000000000000000000000000ffffffffffff",
        "nonce": "0xfb",
        "chainId": "0xaa36a7"
      },
      "additionalContracts": [],
      "isFixedGasLimit": false
    },
    {
      "hash": "0xe42c02d24c04e6cb0e6ecedf2fa03a1fbf9505e9ec538650b45eb9b86026f77a",
      "transactionType": "CALL",
      "contractName": null,
      "contractAddress": "0x429ba70129df741b2ca2a85bc3a2a3328e5c09b4",
      "function": "multicall(bytes[])",
      "arguments": [
        "[0xf70204050000000000000000000000003b4c3885e8144af60a101c75468727863cff23fa00000000000000000000000090954dcfb08c84e1eba306f59fad660b3a7b580800000000000000000000000000000000000000000000000000000000000013880000000000000000000000000000000000000000000000000000000000000064000000000000000000000000c9e902b5047433935c8f6b173fc936fd696c00c0000000000000000000000000000000000000000100000000000000000000000000000000000000000000000000000000000000000000000000000000000000e00000000000000000000000000000000000000000000000000000000000000000, 0xdd46508f000000000000000000000000000000000000000000000000000000000000004000000000000000000000000000000000000000000000000000000000687a98a80000000000000000000000000000000000000000000000000000000000000400000000000000000000000000000000000000000000000000000000000000004000000000000000000000000000000000000000000000000000000000000000800000000000000000000000000000000000000000000000000000000000000004020d14140000000000000000000000000000000000000000000000000000000000000000000000000000000000000000000000000000000000000000000000040000000000000000000000000000000000000000000000000000000000000080000000000000000000000000000000000000000000000000000000000000024000000000000000000000000000000000000000000000000000000000000002a0000000000000000000000000000000000000000000000000000000000000030000000000000000000000000000000000000000000000000000000000000001a00000000000000000000000003b4c3885e8144af60a101c75468727863cff23fa00000000000000000000000090954dcfb08c84e1eba306f59fad660b3a7b580800000000000000000000000000000000000000000000000000000000000013880000000000000000000000000000000000000000000000000000000000000064000000000000000000000000c9e902b5047433935c8f6b173fc936fd696c00c0fffffffffffffffffffffffffffffffffffffffffffffffffffffffffffedb0800000000000000000000000000000000000000000000000000000000000124f80000000000000000000000000000000000000000000000000e364b50c0bf8e630000000000000000000000000000000000000000000000000de0b6b3a76400010000000000000000000000000000000000000000000000000de0b6b3a76400010000000000000000000000002830c21eca4d3f7b5d4e7b7ab4ca0d8c04025bf80000000000000000000000000000000000000000000000000000000000000180000000000000000000000000000000000000000000000000000000000000000000000000000000000000000000000000000000000000000000000000000000400000000000000000000000003b4c3885e8144af60a101c75468727863cff23fa00000000000000000000000090954dcfb08c84e1eba306f59fad660b3a7b580800000000000000000000000000000000000000000000000000000000000000400000000000000000000000003b4c3885e8144af60a101c75468727863cff23fa0000000000000000000000002830c21eca4d3f7b5d4e7b7ab4ca0d8c04025bf8000000000000000000000000000000000000000000000000000000000000004000000000000000000000000090954dcfb08c84e1eba306f59fad660b3a7b58080000000000000000000000002830c21eca4d3f7b5d4e7b7ab4ca0d8c04025bf8]"
      ],
      "transaction": {
        "from": "0x2830c21eca4d3f7b5d4e7b7ab4ca0d8c04025bf8",
        "to": "0x429ba70129df741b2ca2a85bc3a2a3328e5c09b4",
        "gas": "0x54d45",
        "value": "0x0",
        "input": "0xac9650d800000000000000000000000000000000000000000000000000000000000000200000000000000000000000000000000000000000000000000000000000000002000000000000000000000000000000000000000000000000000000000000004000000000000000000000000000000000000000000000000000000000000001800000000000000000000000000000000000000000000000000000000000000104f70204050000000000000000000000003b4c3885e8144af60a101c75468727863cff23fa00000000000000000000000090954dcfb08c84e1eba306f59fad660b3a7b580800000000000000000000000000000000000000000000000000000000000013880000000000000000000000000000000000000000000000000000000000000064000000000000000000000000c9e902b5047433935c8f6b173fc936fd696c00c0000000000000000000000000000000000000000100000000000000000000000000000000000000000000000000000000000000000000000000000000000000e00000000000000000000000000000000000000000000000000000000000000000000000000000000000000000000000000000000000000000000000000000000000000000000000000000000000000000000000000000000000000464dd46508f000000000000000000000000000000000000000000000000000000000000004000000000000000000000000000000000000000000000000000000000687a98a80000000000000000000000000000000000000000000000000000000000000400000000000000000000000000000000000000000000000000000000000000004000000000000000000000000000000000000000000000000000000000000000800000000000000000000000000000000000000000000000000000000000000004020d14140000000000000000000000000000000000000000000000000000000000000000000000000000000000000000000000000000000000000000000000040000000000000000000000000000000000000000000000000000000000000080000000000000000000000000000000000000000000000000000000000000024000000000000000000000000000000000000000000000000000000000000002a0000000000000000000000000000000000000000000000000000000000000030000000000000000000000000000000000000000000000000000000000000001a00000000000000000000000003b4c3885e8144af60a101c75468727863cff23fa00000000000000000000000090954dcfb08c84e1eba306f59fad660b3a7b580800000000000000000000000000000000000000000000000000000000000013880000000000000000000000000000000000000000000000000000000000000064000000000000000000000000c9e902b5047433935c8f6b173fc936fd696c00c0fffffffffffffffffffffffffffffffffffffffffffffffffffffffffffedb0800000000000000000000000000000000000000000000000000000000000124f80000000000000000000000000000000000000000000000000e364b50c0bf8e630000000000000000000000000000000000000000000000000de0b6b3a76400010000000000000000000000000000000000000000000000000de0b6b3a76400010000000000000000000000002830c21eca4d3f7b5d4e7b7ab4ca0d8c04025bf80000000000000000000000000000000000000000000000000000000000000180000000000000000000000000000000000000000000000000000000000000000000000000000000000000000000000000000000000000000000000000000000400000000000000000000000003b4c3885e8144af60a101c75468727863cff23fa00000000000000000000000090954dcfb08c84e1eba306f59fad660b3a7b580800000000000000000000000000000000000000000000000000000000000000400000000000000000000000003b4c3885e8144af60a101c75468727863cff23fa0000000000000000000000002830c21eca4d3f7b5d4e7b7ab4ca0d8c04025bf8000000000000000000000000000000000000000000000000000000000000004000000000000000000000000090954dcfb08c84e1eba306f59fad660b3a7b58080000000000000000000000002830c21eca4d3f7b5d4e7b7ab4ca0d8c04025bf800000000000000000000000000000000000000000000000000000000",
        "nonce": "0xfc",
        "chainId": "0xaa36a7"
      },
      "additionalContracts": [],
      "isFixedGasLimit": false
    }
  ],
  "receipts": [
    {
      "status": "0x1",
      "cumulativeGasUsed": "0x1d48d57",
      "logs": [
        {
          "address": "0x3b4c3885e8144af60a101c75468727863cff23fa",
          "topics": [
            "0x8c5be1e5ebec7d5bd14f71427d1e84f3dd0314c0f7b2291e5b200ac8c7c3b925",
            "0x0000000000000000000000002830c21eca4d3f7b5d4e7b7ab4ca0d8c04025bf8",
            "0x000000000000000000000000000000000022d473030f116ddee9f6b43ac78ba3"
          ],
          "data": "0xffffffffffffffffffffffffffffffffffffffffffffffffffffffffffffffff",
          "blockHash": "0x6a2ac84b98a81996708e5e9eab075a3ac3dc1c87ba121c27e7fff3d89da03f3a",
          "blockNumber": "0x86287f",
          "transactionHash": "0x37677488f2ad7ea3ea8b7794310e17b55e6c3dc68523a12695452e835ce8158e",
          "transactionIndex": "0xe8",
          "logIndex": "0x1c5",
          "removed": false
        }
      ],
      "logsBloom": "0x00000000000000000000000000000000000000002000000000000000000000000000000000000000000000000000000000000000800000000000000000200000000000000000000000004000000000000000000000000800000000800008000000000000000000000000000000000000000000000000000000000000000000000000000000000008000000000000000000000000000000000000000000000000020000000000000000000000000000000000000000000000000000000000000000000000000000000000000000000000000000000000000000000000000000000410000000000000000000000000008000000000000000000000000000000000",
      "type": "0x2",
      "transactionHash": "0x37677488f2ad7ea3ea8b7794310e17b55e6c3dc68523a12695452e835ce8158e",
      "transactionIndex": "0xe8",
      "blockHash": "0x6a2ac84b98a81996708e5e9eab075a3ac3dc1c87ba121c27e7fff3d89da03f3a",
      "blockNumber": "0x86287f",
      "gasUsed": "0x66c5",
      "effectiveGasPrice": "0x108441",
      "from": "0x2830c21eca4d3f7b5d4e7b7ab4ca0d8c04025bf8",
      "to": "0x3b4c3885e8144af60a101c75468727863cff23fa",
      "contractAddress": null
    },
    {
      "status": "0x1",
      "cumulativeGasUsed": "0x1d4fa65",
      "logs": [
        {
          "address": "0x000000000022d473030f116ddee9f6b43ac78ba3",
          "topics": [
            "0xda9fa7c1b00402c17d0161b249b1ab8bbec047c5a52207b9c112deffd817036b",
            "0x0000000000000000000000002830c21eca4d3f7b5d4e7b7ab4ca0d8c04025bf8",
            "0x0000000000000000000000003b4c3885e8144af60a101c75468727863cff23fa",
            "0x000000000000000000000000429ba70129df741b2ca2a85bc3a2a3328e5c09b4"
          ],
          "data": "0x000000000000000000000000ffffffffffffffffffffffffffffffffffffffff0000000000000000000000000000000000000000000000000000ffffffffffff",
          "blockHash": "0x6a2ac84b98a81996708e5e9eab075a3ac3dc1c87ba121c27e7fff3d89da03f3a",
          "blockNumber": "0x86287f",
          "transactionHash": "0xd670d35b25a2d13747b787eed5d0b46c993184f2e3100ea1038f058f88c5d0cc",
          "transactionIndex": "0xe9",
          "logIndex": "0x1c6",
          "removed": false
        }
      ],
      "logsBloom": "0x00010000000000000000000000000000000200000000000000000000000000000000000000000040080000000000000000000000000000000000000000080000000000000000000000000000000000000000000000000000000000000008000000000000000000000000000000000000000000000000000000000800000000000020000000000000000000000000000000000000000000000000000000000000000000000000000000000000000000000000000000000800000000080000000000000000000000000000000000000000000000000000000040000000000000000400000000000000000000000000008000000000000000000000000002000400",
      "type": "0x2",
      "transactionHash": "0xd670d35b25a2d13747b787eed5d0b46c993184f2e3100ea1038f058f88c5d0cc",
      "transactionIndex": "0xe9",
      "blockHash": "0x6a2ac84b98a81996708e5e9eab075a3ac3dc1c87ba121c27e7fff3d89da03f3a",
      "blockNumber": "0x86287f",
      "gasUsed": "0x6d0e",
      "effectiveGasPrice": "0x108441",
      "from": "0x2830c21eca4d3f7b5d4e7b7ab4ca0d8c04025bf8",
      "to": "0x000000000022d473030f116ddee9f6b43ac78ba3",
      "contractAddress": null
    },
    {
      "status": "0x1",
      "cumulativeGasUsed": "0x1d564f7",
      "logs": [
        {
          "address": "0x90954dcfb08c84e1eba306f59fad660b3a7b5808",
          "topics": [
            "0x8c5be1e5ebec7d5bd14f71427d1e84f3dd0314c0f7b2291e5b200ac8c7c3b925",
            "0x0000000000000000000000002830c21eca4d3f7b5d4e7b7ab4ca0d8c04025bf8",
            "0x000000000000000000000000000000000022d473030f116ddee9f6b43ac78ba3"
          ],
          "data": "0xffffffffffffffffffffffffffffffffffffffffffffffffffffffffffffffff",
          "blockHash": "0x6a2ac84b98a81996708e5e9eab075a3ac3dc1c87ba121c27e7fff3d89da03f3a",
          "blockNumber": "0x86287f",
          "transactionHash": "0xdc99d21e4ab15878e3d03d6e75cd9f2f4365e0259feb9fc55b24dc0bed8b7db3",
          "transactionIndex": "0xea",
          "logIndex": "0x1c7",
          "removed": false
        }
      ],
      "logsBloom": "0x00000000000000000000000000000000000000000000000000000000000000000000000000000000000000000000000000000000800000000000000000200000000000000000000000004000000000000000000020000800000000000008000000000000000000000000000000000000000100000000000000000000000000000000000000000000000000000000000000000000000000000000000000000000020000000000000000000000000000000000000000000000000000000000000000000000000020000000000000000000000000000000000000000000000000000410000000000000000000000000008000000000000000000000000000000000",
      "type": "0x2",
      "transactionHash": "0xdc99d21e4ab15878e3d03d6e75cd9f2f4365e0259feb9fc55b24dc0bed8b7db3",
      "transactionIndex": "0xea",
      "blockHash": "0x6a2ac84b98a81996708e5e9eab075a3ac3dc1c87ba121c27e7fff3d89da03f3a",
      "blockNumber": "0x86287f",
      "gasUsed": "0x6a92",
      "effectiveGasPrice": "0x108441",
      "from": "0x2830c21eca4d3f7b5d4e7b7ab4ca0d8c04025bf8",
      "to": "0x90954dcfb08c84e1eba306f59fad660b3a7b5808",
      "contractAddress": null
    },
    {
      "status": "0x1",
      "cumulativeGasUsed": "0x1d5d205",
      "logs": [
        {
          "address": "0x000000000022d473030f116ddee9f6b43ac78ba3",
          "topics": [
            "0xda9fa7c1b00402c17d0161b249b1ab8bbec047c5a52207b9c112deffd817036b",
            "0x0000000000000000000000002830c21eca4d3f7b5d4e7b7ab4ca0d8c04025bf8",
            "0x00000000000000000000000090954dcfb08c84e1eba306f59fad660b3a7b5808",
            "0x000000000000000000000000429ba70129df741b2ca2a85bc3a2a3328e5c09b4"
          ],
          "data": "0x000000000000000000000000ffffffffffffffffffffffffffffffffffffffff0000000000000000000000000000000000000000000000000000ffffffffffff",
          "blockHash": "0x6a2ac84b98a81996708e5e9eab075a3ac3dc1c87ba121c27e7fff3d89da03f3a",
          "blockNumber": "0x86287f",
          "transactionHash": "0xf78740949d3019d3f162bcf51b49f992c36c37e533167f7ce1d6f7ef17ed9a28",
          "transactionIndex": "0xeb",
          "logIndex": "0x1c8",
          "removed": false
        }
      ],
      "logsBloom": "0x00010000000000000000000000000000000000000000000000000000000000000000000000000040080000000000000000000000000000000000000000080000001000000000000000000000000000000000000000000000000000000008000000000000000000000000000000000000000000000000000000000800000000000020000000000000000000000000000000020000000000000000000000000000000000040000000000000000000000000000000000000000000000080000000000000000000000000000000000000000000000000000000040000000000000000400000000000000000000000000008000000000000000000000000000000400",
      "type": "0x2",
      "transactionHash": "0xf78740949d3019d3f162bcf51b49f992c36c37e533167f7ce1d6f7ef17ed9a28",
      "transactionIndex": "0xeb",
      "blockHash": "0x6a2ac84b98a81996708e5e9eab075a3ac3dc1c87ba121c27e7fff3d89da03f3a",
      "blockNumber": "0x86287f",
      "gasUsed": "0x6d0e",
      "effectiveGasPrice": "0x108441",
      "from": "0x2830c21eca4d3f7b5d4e7b7ab4ca0d8c04025bf8",
      "to": "0x000000000022d473030f116ddee9f6b43ac78ba3",
      "contractAddress": null
    },
    {
      "status": "0x1",
      "cumulativeGasUsed": "0x1d9a8a9",
      "logs": [
        {
          "address": "0x429ba70129df741b2ca2a85bc3a2a3328e5c09b4",
          "topics": [
            "0xddf252ad1be2c89b69c2b068fc378daa952ba7f163c4a11628f55a4df523b3ef",
            "0x0000000000000000000000000000000000000000000000000000000000000000",
            "0x0000000000000000000000002830c21eca4d3f7b5d4e7b7ab4ca0d8c04025bf8",
            "0x0000000000000000000000000000000000000000000000000000000000003aef"
          ],
          "data": "0x",
          "blockHash": "0x6a2ac84b98a81996708e5e9eab075a3ac3dc1c87ba121c27e7fff3d89da03f3a",
          "blockNumber": "0x86287f",
          "transactionHash": "0xe42c02d24c04e6cb0e6ecedf2fa03a1fbf9505e9ec538650b45eb9b86026f77a",
          "transactionIndex": "0xec",
          "logIndex": "0x1c9",
          "removed": false
        },
        {
          "address": "0xe03a1074c86cfedd5c142c4f04f1a1536e203543",
          "topics": [
            "0xf208f4912782fd25c7f114ca3723a2d5dd6f3bcc3ac8db5af63baa85f711d5ec",
            "0xb272506abb36220e5ce3c7dbe1efa94c837896a6db8da2c7ae1211cbec1d31d4",
            "0x000000000000000000000000429ba70129df741b2ca2a85bc3a2a3328e5c09b4"
          ],
          "data": "0xfffffffffffffffffffffffffffffffffffffffffffffffffffffffffffedb0800000000000000000000000000000000000000000000000000000000000124f80000000000000000000000000000000000000000000000000e364b50c0bf8e630000000000000000000000000000000000000000000000000000000000003aef",
          "blockHash": "0x6a2ac84b98a81996708e5e9eab075a3ac3dc1c87ba121c27e7fff3d89da03f3a",
          "blockNumber": "0x86287f",
          "transactionHash": "0xe42c02d24c04e6cb0e6ecedf2fa03a1fbf9505e9ec538650b45eb9b86026f77a",
          "transactionIndex": "0xec",
          "logIndex": "0x1ca",
          "removed": false
        },
        {
          "address": "0x3b4c3885e8144af60a101c75468727863cff23fa",
          "topics": [
            "0xddf252ad1be2c89b69c2b068fc378daa952ba7f163c4a11628f55a4df523b3ef",
            "0x0000000000000000000000002830c21eca4d3f7b5d4e7b7ab4ca0d8c04025bf8",
            "0x000000000000000000000000e03a1074c86cfedd5c142c4f04f1a1536e203543"
          ],
          "data": "0x0000000000000000000000000000000000000000000000000de0b6b3a7640000",
          "blockHash": "0x6a2ac84b98a81996708e5e9eab075a3ac3dc1c87ba121c27e7fff3d89da03f3a",
          "blockNumber": "0x86287f",
          "transactionHash": "0xe42c02d24c04e6cb0e6ecedf2fa03a1fbf9505e9ec538650b45eb9b86026f77a",
          "transactionIndex": "0xec",
          "logIndex": "0x1cb",
          "removed": false
        },
        {
          "address": "0x90954dcfb08c84e1eba306f59fad660b3a7b5808",
          "topics": [
            "0xddf252ad1be2c89b69c2b068fc378daa952ba7f163c4a11628f55a4df523b3ef",
            "0x0000000000000000000000002830c21eca4d3f7b5d4e7b7ab4ca0d8c04025bf8",
            "0x000000000000000000000000e03a1074c86cfedd5c142c4f04f1a1536e203543"
          ],
          "data": "0x0000000000000000000000000000000000000000000000000de0b6b3a7640000",
          "blockHash": "0x6a2ac84b98a81996708e5e9eab075a3ac3dc1c87ba121c27e7fff3d89da03f3a",
          "blockNumber": "0x86287f",
          "transactionHash": "0xe42c02d24c04e6cb0e6ecedf2fa03a1fbf9505e9ec538650b45eb9b86026f77a",
          "transactionIndex": "0xec",
          "logIndex": "0x1cc",
          "removed": false
        }
      ],
      "logsBloom": "0x00000000000000000000001000000000000000002000000000000000080000000000000000000040080000000000000000000100000000000000000000000000010000000000000000000008000000000000000020000000001000800008000000000000020000000000000080000800000100000000100000000810000000000000000001000008200010000000000000002000000000000000000000000000000004000000000000000000000000000000000000400000000000000000000000000002000020000000000000100000000000000000200000001000000020001400000000000000000000000000008004000000000000000000000000000000",
      "type": "0x2",
      "transactionHash": "0xe42c02d24c04e6cb0e6ecedf2fa03a1fbf9505e9ec538650b45eb9b86026f77a",
      "transactionIndex": "0xec",
      "blockHash": "0x6a2ac84b98a81996708e5e9eab075a3ac3dc1c87ba121c27e7fff3d89da03f3a",
      "blockNumber": "0x86287f",
      "gasUsed": "0x3d6a4",
      "effectiveGasPrice": "0x108441",
      "from": "0x2830c21eca4d3f7b5d4e7b7ab4ca0d8c04025bf8",
      "to": "0x429ba70129df741b2ca2a85bc3a2a3328e5c09b4",
      "contractAddress": null
    }
  ],
  "libraries": [],
  "pending": [],
  "returns": {},
  "timestamp": 1752861385,
  "chain": 11155111,
  "commit": "9870984"
}