{
  "transactions": [
    {
      "hash": "0x43438c5beb2ec275f93afe8d39d0d03ca4f63bf0742bf7ccbe44af2e3161d9ba",
      "transactionType": "CALL",
      "contractName": null,
      "contractAddress": "0x1c7d4b196cb0c7b01d743fbc6116a902379c7238",
      "function": "approve(address,uint256)",
      "arguments": [
        "0x194CC08EFeD09BE41E94b9Bb4c5Aa265662B428e",
        "115792089237316195423570985008687907853269984665640564039457584007913129639935"
      ],
      "transaction": {
        "from": "0x2830c21eca4d3f7b5d4e7b7ab4ca0d8c04025bf8",
        "to": "0x1c7d4b196cb0c7b01d743fbc6116a902379c7238",
        "gas": "0x13eb1",
        "value": "0x0",
        "input": "0x095ea7b3000000000000000000000000194cc08efed09be41e94b9bb4c5aa265662b428effffffffffffffffffffffffffffffffffffffffffffffffffffffffffffffff",
        "nonce": "0xd6",
        "chainId": "0xaa36a7"
      },
      "additionalContracts": [],
      "isFixedGasLimit": false
    },
    {
      "hash": "0x7751c4096c27cb98b47047ad336f69d3d961bf5da3e3c7ca15ea1cab6b760295",
      "transactionType": "CALL",
      "contractName": null,
      "contractAddress": "0x90954dcfb08c84e1eba306f59fad660b3a7b5808",
      "function": "approve(address,uint256)",
      "arguments": [
        "0x00000000000044a361Ae3cAc094c9D1b14Eece97",
        "115792089237316195423570985008687907853269984665640564039457584007913129639935"
      ],
      "transaction": {
        "from": "0x2830c21eca4d3f7b5d4e7b7ab4ca0d8c04025bf8",
        "to": "0x90954dcfb08c84e1eba306f59fad660b3a7b5808",
        "gas": "0x9322",
        "value": "0x0",
        "input": "0x095ea7b300000000000000000000000000000000000044a361ae3cac094c9d1b14eece97ffffffffffffffffffffffffffffffffffffffffffffffffffffffffffffffff",
        "nonce": "0xd7",
        "chainId": "0xaa36a7"
      },
      "additionalContracts": [],
      "isFixedGasLimit": false
    },
    {
      "hash": "0xa2a491ee351201cd7152e839fc9da3b53c1038a819ca399aaee7ec5d64cbfa4c",
      "transactionType": "CALL",
      "contractName": null,
      "contractAddress": "0x3b4c3885e8144af60a101c75468727863cff23fa",
      "function": "approve(address,uint256)",
      "arguments": [
        "0x00000000000044a361Ae3cAc094c9D1b14Eece97",
        "115792089237316195423570985008687907853269984665640564039457584007913129639935"
      ],
      "transaction": {
        "from": "0x2830c21eca4d3f7b5d4e7b7ab4ca0d8c04025bf8",
        "to": "0x3b4c3885e8144af60a101c75468727863cff23fa",
        "gas": "0x963b",
        "value": "0x0",
        "input": "0x095ea7b300000000000000000000000000000000000044a361ae3cac094c9d1b14eece97ffffffffffffffffffffffffffffffffffffffffffffffffffffffffffffffff",
        "nonce": "0xd8",
        "chainId": "0xaa36a7"
      },
      "additionalContracts": [],
      "isFixedGasLimit": false
    },
    {
      "hash": "0xcb79efd7dd7e33a9da04c60a9a71e55650067b8384d2768b5820a8cf00359804",
      "transactionType": "CALL",
      "contractName": null,
      "contractAddress": "0x00000000000044a361ae3cac094c9d1b14eece97",
      "function": "swapExactTokensForTokens(uint256,uint256,bool,(address,address,uint24,int24,address),bytes,address,uint256)",
      "arguments": [
        "1000000000000000000",
        "0",
        "true",
        "(0x3B4c3885E8144af60A101c75468727863cFf23fA, 0x90954dcFB08C84e1ebA306f59FAD660b3A7B5808, 3000, 60, 0xc9e902b5047433935C8f6B173fC936Fd696C00c0)",
        "0x00000000000000000000000000000000000000000000000000000000000000010000000000000000000000002830c21eca4d3f7b5d4e7b7ab4ca0d8c04025bf8",
        "0x2830C21ecA4d3F7b5D4e7b7AB4ca0D8C04025bf8",
        "1752449760"
      ],
      "transaction": {
        "from": "0x2830c21eca4d3f7b5d4e7b7ab4ca0d8c04025bf8",
        "to": "0x00000000000044a361ae3cac094c9d1b14eece97",
        "gas": "0x5109c",
        "value": "0x0",
        "input": "0xb1a0d5710000000000000000000000000000000000000000000000000de0b6b3a7640000000000000000000000000000000000000000000000000000000000000000000000000000000000000000000000000000000000000000000000000000000000010000000000000000000000003b4c3885e8144af60a101c75468727863cff23fa00000000000000000000000090954dcfb08c84e1eba306f59fad660b3a7b58080000000000000000000000000000000000000000000000000000000000000bb8000000000000000000000000000000000000000000000000000000000000003c000000000000000000000000c9e902b5047433935c8f6b173fc936fd696c00c000000000000000000000000000000000000000000000000000000000000001600000000000000000000000002830c21eca4d3f7b5d4e7b7ab4ca0d8c04025bf800000000000000000000000000000000000000000000000000000000687442e0000000000000000000000000000000000000000000000000000000000000004000000000000000000000000000000000000000000000000000000000000000010000000000000000000000002830c21eca4d3f7b5d4e7b7ab4ca0d8c04025bf8",
        "nonce": "0xd9",
        "chainId": "0xaa36a7"
      },
      "additionalContracts": [],
      "isFixedGasLimit": false
    }
  ],
  "receipts": [
    {
      "status": "0x1",
      "cumulativeGasUsed": "0xbf1284",
      "logs": [
        {
          "address": "0x1c7d4b196cb0c7b01d743fbc6116a902379c7238",
          "topics": [
            "0x8c5be1e5ebec7d5bd14f71427d1e84f3dd0314c0f7b2291e5b200ac8c7c3b925",
            "0x0000000000000000000000002830c21eca4d3f7b5d4e7b7ab4ca0d8c04025bf8",
            "0x000000000000000000000000194cc08efed09be41e94b9bb4c5aa265662b428e"
          ],
          "data": "0xffffffffffffffffffffffffffffffffffffffffffffffffffffffffffffffff",
          "blockHash": "0xcd263747f6b4a0710351ad6b3b3a3ae5cf3350ee6a2f53a66fd2ff27af5657f3",
          "blockNumber": "0x85a3a0",
          "transactionHash": "0x43438c5beb2ec275f93afe8d39d0d03ca4f63bf0742bf7ccbe44af2e3161d9ba",
          "transactionIndex": "0x80",
          "logIndex": "0xbb",
          "removed": false
        }
      ],
      "logsBloom": "0x00000000000000000000000000000000000000000000000000000000000200000000004000000000000000000000000000000000000000000000000000200000000000000000000000000000000000000000000000000000000000000008000000000400000000000000000000000000000000000000000000000000000000000000000000100000000000000000000000000000000000000000000000000000020000000000000000000000000000000000000000000000000000000000000000000000000000000000000000000000000000000000000000000000000000000510000000000000000010000000008000000000000000000000000000000000",
      "type": "0x2",
      "transactionHash": "0x43438c5beb2ec275f93afe8d39d0d03ca4f63bf0742bf7ccbe44af2e3161d9ba",
      "transactionIndex": "0x80",
      "blockHash": "0xcd263747f6b4a0710351ad6b3b3a3ae5cf3350ee6a2f53a66fd2ff27af5657f3",
      "blockNumber": "0x85a3a0",
      "gasUsed": "0xd9e9",
      "effectiveGasPrice": "0xf4253",
      "from": "0x2830c21eca4d3f7b5d4e7b7ab4ca0d8c04025bf8",
      "to": "0x1c7d4b196cb0c7b01d743fbc6116a902379c7238",
      "contractAddress": null
    },
    {
      "status": "0x1",
      "cumulativeGasUsed": "0xbf7d0a",
      "logs": [
        {
          "address": "0x90954dcfb08c84e1eba306f59fad660b3a7b5808",
          "topics": [
            "0x8c5be1e5ebec7d5bd14f71427d1e84f3dd0314c0f7b2291e5b200ac8c7c3b925",
            "0x0000000000000000000000002830c21eca4d3f7b5d4e7b7ab4ca0d8c04025bf8",
            "0x00000000000000000000000000000000000044a361ae3cac094c9d1b14eece97"
          ],
          "data": "0xffffffffffffffffffffffffffffffffffffffffffffffffffffffffffffffff",
          "blockHash": "0xcd263747f6b4a0710351ad6b3b3a3ae5cf3350ee6a2f53a66fd2ff27af5657f3",
          "blockNumber": "0x85a3a0",
          "transactionHash": "0x7751c4096c27cb98b47047ad336f69d3d961bf5da3e3c7ca15ea1cab6b760295",
          "transactionIndex": "0x81",
          "logIndex": "0xbc",
          "removed": false
        }
      ],
      "logsBloom": "0x00000000000000000000000000000000000000000000000000000000000000000000000000000000000000000000000000000000000000000000000040200000000000000000000000000000000000000000000020000000000000000008000000000000000000000000000000000000000100000000000000000000000040000000000000000000000000000000000000000000000000000000000000000000020000000000000000000000000000000000000000000000000000000000000000000000000020000000000000000000000000000000000000000000000000010410000000000000000000000000008000000000000000000000000000000000",
      "type": "0x2",
      "transactionHash": "0x7751c4096c27cb98b47047ad336f69d3d961bf5da3e3c7ca15ea1cab6b760295",
      "transactionIndex": "0x81",
      "blockHash": "0xcd263747f6b4a0710351ad6b3b3a3ae5cf3350ee6a2f53a66fd2ff27af5657f3",
      "blockNumber": "0x85a3a0",
      "gasUsed": "0x6a86",
      "effectiveGasPrice": "0xf4253",
      "from": "0x2830c21eca4d3f7b5d4e7b7ab4ca0d8c04025bf8",
      "to": "0x90954dcfb08c84e1eba306f59fad660b3a7b5808",
      "contractAddress": null
    },
    {
      "status": "0x1",
      "cumulativeGasUsed": "0xbfe3c3",
      "logs": [
        {
          "address": "0x3b4c3885e8144af60a101c75468727863cff23fa",
          "topics": [
            "0x8c5be1e5ebec7d5bd14f71427d1e84f3dd0314c0f7b2291e5b200ac8c7c3b925",
            "0x0000000000000000000000002830c21eca4d3f7b5d4e7b7ab4ca0d8c04025bf8",
            "0x00000000000000000000000000000000000044a361ae3cac094c9d1b14eece97"
          ],
          "data": "0xffffffffffffffffffffffffffffffffffffffffffffffffffffffffffffffff",
          "blockHash": "0xcd263747f6b4a0710351ad6b3b3a3ae5cf3350ee6a2f53a66fd2ff27af5657f3",
          "blockNumber": "0x85a3a0",
          "transactionHash": "0xa2a491ee351201cd7152e839fc9da3b53c1038a819ca399aaee7ec5d64cbfa4c",
          "transactionIndex": "0x82",
          "logIndex": "0xbd",
          "removed": false
        }
      ],
      "logsBloom": "0x00000000000000000000000000000000000000002000000000000000000000000000000000000000000000000000000000000000000000000000000040200000000000000000000000000000000000000000000000000000000000800008000000000000000000000000000000000000000000000000000000000000000040000000000000000008000000000000000000000000000000000000000000000000020000000000000000000000000000000000000000000000000000000000000000000000000000000000000000000000000000000000000000000000000000010410000000000000000000000000008000000000000000000000000000000000",
      "type": "0x2",
      "transactionHash": "0xa2a491ee351201cd7152e839fc9da3b53c1038a819ca399aaee7ec5d64cbfa4c",
      "transactionIndex": "0x82",
      "blockHash": "0xcd263747f6b4a0710351ad6b3b3a3ae5cf3350ee6a2f53a66fd2ff27af5657f3",
      "blockNumber": "0x85a3a0",
      "gasUsed": "0x66b9",
      "effectiveGasPrice": "0xf4253",
      "from": "0x2830c21eca4d3f7b5d4e7b7ab4ca0d8c04025bf8",
      "to": "0x3b4c3885e8144af60a101c75468727863cff23fa",
      "contractAddress": null
    },
    {
      "status": "0x1",
      "cumulativeGasUsed": "0xc36396",
      "logs": [
        {
          "address": "0x1c7d4b196cb0c7b01d743fbc6116a902379c7238",
          "topics": [
            "0xddf252ad1be2c89b69c2b068fc378daa952ba7f163c4a11628f55a4df523b3ef",
            "0x0000000000000000000000002830c21eca4d3f7b5d4e7b7ab4ca0d8c04025bf8",
            "0x000000000000000000000000194cc08efed09be41e94b9bb4c5aa265662b428e"
          ],
          "data": "0x0000000000000000000000000000000000000000000000000000000000000005",
          "blockHash": "0xcd263747f6b4a0710351ad6b3b3a3ae5cf3350ee6a2f53a66fd2ff27af5657f3",
          "blockNumber": "0x85a3a0",
          "transactionHash": "0xcb79efd7dd7e33a9da04c60a9a71e55650067b8384d2768b5820a8cf00359804",
          "transactionIndex": "0x83",
          "logIndex": "0xbe",
          "removed": false
        },
        {
          "address": "0x194cc08efed09be41e94b9bb4c5aa265662b428e",
          "topics": [
            "0x18915d317bad4db12ff345e5f7f9619b5d0298928c09cbe4bee5c864f315b0b9",
            "0x0000000000000000000000002830c21eca4d3f7b5d4e7b7ab4ca0d8c04025bf8"
          ],
          "data": "0x00000000000000000000000000000000000000000000000000000000000000050000000000000000000000000000000000000000000000000006133c6690e000",
          "blockHash": "0xcd263747f6b4a0710351ad6b3b3a3ae5cf3350ee6a2f53a66fd2ff27af5657f3",
          "blockNumber": "0x85a3a0",
          "transactionHash": "0xcb79efd7dd7e33a9da04c60a9a71e55650067b8384d2768b5820a8cf00359804",
          "transactionIndex": "0x83",
          "logIndex": "0xbf",
          "removed": false
        },
        {
          "address": "0xe03a1074c86cfedd5c142c4f04f1a1536e203543",
          "topics": [
            "0x40e9cecb9f5f1f1c5b9c97dec2917b7ee92e57ba5563708daca94dd84ad7112f",
            "0x4e8851e31d32848b9d32e9b388421cc0129b43a827b1dd1c80450cb56ff0924d",
            "0x00000000000000000000000000000000000044a361ae3cac094c9d1b14eece97"
          ],
          "data": "0xfffffffffffffffffffffffffffffffffffffffffffffffff21f494c589c000000000000000000000000000000000000000000000000000002745af252f82f8e0000000000000000000000000000000000000000586febe1ed11b5fb846c53070000000000000000000000000000000000000000000000000e9ae3d533801a47ffffffffffffffffffffffffffffffffffffffffffffffffffffffffffffacf50000000000000000000000000000000000000000000000000000000000000bb8",
          "blockHash": "0xcd263747f6b4a0710351ad6b3b3a3ae5cf3350ee6a2f53a66fd2ff27af5657f3",
          "blockNumber": "0x85a3a0",
          "transactionHash": "0xcb79efd7dd7e33a9da04c60a9a71e55650067b8384d2768b5820a8cf00359804",
          "transactionIndex": "0x83",
          "logIndex": "0xc0",
          "removed": false
        },
        {
          "address": "0xc9e902b5047433935c8f6b173fc936fd696c00c0",
          "topics": [
            "0x18915d317bad4db12ff345e5f7f9619b5d0298928c09cbe4bee5c864f315b0b9",
            "0x0000000000000000000000002830c21eca4d3f7b5d4e7b7ab4ca0d8c04025bf8"
          ],
          "data": "0x0000000000000000000000000000000000000000000000000000000000000000000000000000000000000000000000000000000000000000000000000001cf93",
          "blockHash": "0xcd263747f6b4a0710351ad6b3b3a3ae5cf3350ee6a2f53a66fd2ff27af5657f3",
          "blockNumber": "0x85a3a0",
          "transactionHash": "0xcb79efd7dd7e33a9da04c60a9a71e55650067b8384d2768b5820a8cf00359804",
          "transactionIndex": "0x83",
          "logIndex": "0xc1",
          "removed": false
        },
        {
          "address": "0x3b4c3885e8144af60a101c75468727863cff23fa",
          "topics": [
            "0xddf252ad1be2c89b69c2b068fc378daa952ba7f163c4a11628f55a4df523b3ef",
            "0x0000000000000000000000002830c21eca4d3f7b5d4e7b7ab4ca0d8c04025bf8",
            "0x000000000000000000000000e03a1074c86cfedd5c142c4f04f1a1536e203543"
          ],
          "data": "0x0000000000000000000000000000000000000000000000000de0b6b3a7640000",
          "blockHash": "0xcd263747f6b4a0710351ad6b3b3a3ae5cf3350ee6a2f53a66fd2ff27af5657f3",
          "blockNumber": "0x85a3a0",
          "transactionHash": "0xcb79efd7dd7e33a9da04c60a9a71e55650067b8384d2768b5820a8cf00359804",
          "transactionIndex": "0x83",
          "logIndex": "0xc2",
          "removed": false
        },
        {
          "address": "0x90954dcfb08c84e1eba306f59fad660b3a7b5808",
          "topics": [
            "0xddf252ad1be2c89b69c2b068fc378daa952ba7f163c4a11628f55a4df523b3ef",
            "0x000000000000000000000000e03a1074c86cfedd5c142c4f04f1a1536e203543",
            "0x0000000000000000000000002830c21eca4d3f7b5d4e7b7ab4ca0d8c04025bf8"
          ],
          "data": "0x00000000000000000000000000000000000000000000000002745af252f82f8e",
          "blockHash": "0xcd263747f6b4a0710351ad6b3b3a3ae5cf3350ee6a2f53a66fd2ff27af5657f3",
          "blockNumber": "0x85a3a0",
          "transactionHash": "0xcb79efd7dd7e33a9da04c60a9a71e55650067b8384d2768b5820a8cf00359804",
          "transactionIndex": "0x83",
          "logIndex": "0xc3",
          "removed": false
        }
      ],
      "logsBloom": "0x00040000010000000000000000000080000000002000000000000000000200000000004000000000000000000000000000210100040000008000000040000000000000000000000000000028000001000000000020000020000000800008000000000400000000000000000080000000000100000000100000000010000040000200000000100008000010000000000080000000000000000000000000000000000000000000000000000000000000080000000000000000000000000000000000000002000020000040000000000000000000000000000000001000000000011500000000000000004010000000008000000000000000000000000000000000",
      "type": "0x2",
      "transactionHash": "0xcb79efd7dd7e33a9da04c60a9a71e55650067b8384d2768b5820a8cf00359804",
      "transactionIndex": "0x83",
      "blockHash": "0xcd263747f6b4a0710351ad6b3b3a3ae5cf3350ee6a2f53a66fd2ff27af5657f3",
      "blockNumber": "0x85a3a0",
      "gasUsed": "0x37fd3",
      "effectiveGasPrice": "0xf4253",
      "from": "0x2830c21eca4d3f7b5d4e7b7ab4ca0d8c04025bf8",
      "to": "0x00000000000044a361ae3cac094c9d1b14eece97",
      "contractAddress": null
    }
  ],
  "libraries": [],
  "pending": [],
  "returns": {},
  "timestamp": 1752446197,
  "chain": 11155111,
  "commit": "9870984"
}