{
  "transactions": [
    {
      "hash": "0x5729fc8be7babf9396a5b769825587aa06594861026bcddc210ea28f2842f2ab",
      "transactionType": "CALL",
      "contractName": null,
      "contractAddress": "0x1c7d4b196cb0c7b01d743fbc6116a902379c7238",
      "function": "approve(address,uint256)",
      "arguments": [
        "0x072defE27c6f4e3c1Db13cb97aD51bC4A8f5154E",
        "115792089237316195423570985008687907853269984665640564039457584007913129639935"
      ],
      "transaction": {
        "from": "0x2830c21eca4d3f7b5d4e7b7ab4ca0d8c04025bf8",
        "to": "0x1c7d4b196cb0c7b01d743fbc6116a902379c7238",
        "gas": "0xc19d",
        "value": "0x0",
        "input": "0x095ea7b3000000000000000000000000072defe27c6f4e3c1db13cb97ad51bc4a8f5154effffffffffffffffffffffffffffffffffffffffffffffffffffffffffffffff",
        "nonce": "0xd0",
        "chainId": "0xaa36a7"
      },
      "additionalContracts": [],
      "isFixedGasLimit": false
    }
  ],
  "receipts": [
    {
      "status": "0x1",
      "cumulativeGasUsed": "0x1432fc9",
      "logs": [
        {
          "address": "0x1c7d4b196cb0c7b01d743fbc6116a902379c7238",
          "topics": [
            "0x8c5be1e5ebec7d5bd14f71427d1e84f3dd0314c0f7b2291e5b200ac8c7c3b925",
            "0x0000000000000000000000002830c21eca4d3f7b5d4e7b7ab4ca0d8c04025bf8",
            "0x000000000000000000000000072defe27c6f4e3c1db13cb97ad51bc4a8f5154e"
          ],
          "data": "0xffffffffffffffffffffffffffffffffffffffffffffffffffffffffffffffff",
          "blockHash": "0x82c9acc4be49af4fc3f7246a532929c8e014a54324c4f252beb61ac72339b5bf",
          "blockNumber": "0x85a358",
          "transactionHash": "0x5729fc8be7babf9396a5b769825587aa06594861026bcddc210ea28f2842f2ab",
          "transactionIndex": "0x7d",
          "logIndex": "0xf9",
          "removed": false
        }
      ],
      "logsBloom": "0x00000000000000000000000000000000000000000000000000000000000200000010000000000000000000000000000000000000000000000000000000200000000000000000000000000000000000000000000000000000000000000008000000000000000000000000000001000000000000000000000000000000000000000000000000100000000000000000000000000000000000000000000000000000020000000000000000000000000000000000000000000000000000000000000000000000000000000000000000000000020000000000000000000000000000000410000000000000000010000000008000000000000000000000000000000000",
      "type": "0x2",
      "transactionHash": "0x5729fc8be7babf9396a5b769825587aa06594861026bcddc210ea28f2842f2ab",
      "transactionIndex": "0x7d",
      "blockHash": "0x82c9acc4be49af4fc3f7246a532929c8e014a54324c4f252beb61ac72339b5bf",
      "blockNumber": "0x85a358",
      "gasUsed": "0x8c2d",
      "effectiveGasPrice": "0xf4250",
      "from": "0x2830c21eca4d3f7b5d4e7b7ab4ca0d8c04025bf8",
      "to": "0x1c7d4b196cb0c7b01d743fbc6116a902379c7238",
      "contractAddress": null
    }
  ],
  "libraries": [],
  "pending": [],
  "returns": {},
  "timestamp": 1752445333,
  "chain": 11155111,
  "commit": "9870984"
}