{
  "transactions": [
    {
      "hash": "0x26fb4f4a265d87b205ce3f63a02d437cd262b63060e16d5d9750e979a1bf7d0c",
      "transactionType": "CALL",
      "contractName": null,
      "contractAddress": "0xe03a1074c86cfedd5c142c4f04f1a1536e203543",
      "function": "initialize((address,address,uint24,int24,address),uint160)",
      "arguments": [
        "(0x3B4c3885E8144af60A101c75468727863cFf23fA, 0x90954dcFB08C84e1ebA306f59FAD660b3A7B5808, 3000, 60, 0xc9e902b5047433935C8f6B173fC936Fd696C00c0)",
        "79228162514264337593543950336"
      ],
      "transaction": {
        "from": "0x2830c21eca4d3f7b5d4e7b7ab4ca0d8c04025bf8",
        "to": "0xe03a1074c86cfedd5c142c4f04f1a1536e203543",
        "gas": "0x1277b",
        "value": "0x0",
        "input": "0x6276cbbe0000000000000000000000003b4c3885e8144af60a101c75468727863cff23fa00000000000000000000000090954dcfb08c84e1eba306f59fad660b3a7b58080000000000000000000000000000000000000000000000000000000000000bb8000000000000000000000000000000000000000000000000000000000000003c000000000000000000000000c9e902b5047433935c8f6b173fc936fd696c00c00000000000000000000000000000000000000001000000000000000000000000",
        "nonce": "0xc8",
        "chainId": "0xaa36a7"
      },
      "additionalContracts": [],
      "isFixedGasLimit": false
    }
  ],
  "receipts": [
    {
      "status": "0x1",
      "cumulativeGasUsed": "0xe0674d",
      "logs": [
        {
          "address": "0xe03a1074c86cfedd5c142c4f04f1a1536e203543",
          "topics": [
            "0xdd466e674ea557f56295e2d0218a125ea4b4f0f6f3307b95f85e6110838d6438",
            "0x4e8851e31d32848b9d32e9b388421cc0129b43a827b1dd1c80450cb56ff0924d",
            "0x0000000000000000000000003b4c3885e8144af60a101c75468727863cff23fa",
            "0x00000000000000000000000090954dcfb08c84e1eba306f59fad660b3a7b5808"
          ],
          "data": "0x0000000000000000000000000000000000000000000000000000000000000bb8000000000000000000000000000000000000000000000000000000000000003c000000000000000000000000c9e902b5047433935c8f6b173fc936fd696c00c000000000000000000000000000000000000000010000000000000000000000000000000000000000000000000000000000000000000000000000000000000000",
          "blockHash": "0x09ebcc1a7be59b116378662c45a2379b74b0bb9a220b295ae3b837eecbdc1b87",
          "blockNumber": "0x85a340",
          "transactionHash": "0x26fb4f4a265d87b205ce3f63a02d437cd262b63060e16d5d9750e979a1bf7d0c",
          "transactionIndex": "0x71",
          "logIndex": "0xdf",
          "removed": false
        }
      ],
      "logsBloom": "0x00000000010000000000000000000000000200000000000000000000000000000000000000000000000000000000000000000100000000000000000000000000001000000000000000000000000000000000000000000000000000000000000000000000000000000000000000000000000000000000100000000000000000000000000000000008000000000000000080020001000000000000000000200000000000040000000000000000000000000000000000000800000000000000000000000000000000000040000000000000000000000000000000000000000000001000000000000000000000000000000000000000000000000000000002000000",
      "type": "0x2",
      "transactionHash": "0x26fb4f4a265d87b205ce3f63a02d437cd262b63060e16d5d9750e979a1bf7d0c",
      "transactionIndex": "0x71",
      "blockHash": "0x09ebcc1a7be59b116378662c45a2379b74b0bb9a220b295ae3b837eecbdc1b87",
      "blockNumber": "0x85a340",
      "gasUsed": "0xca0a",
      "effectiveGasPrice": "0xf4250",
      "from": "0x2830c21eca4d3f7b5d4e7b7ab4ca0d8c04025bf8",
      "to": "0xe03a1074c86cfedd5c142c4f04f1a1536e203543",
      "contractAddress": null
    }
  ],
  "libraries": [],
  "pending": [],
  "returns": {},
  "timestamp": 1752445046,
  "chain": 11155111,
  "commit": "9870984"
}