{
  "transactions": [
    {
      "hash": "0x51775e0d4d2078d6a3eaa8662867e0dc6b194a7945efe798405928eea30e045c",
      "transactionType": "CALL",
      "contractName": null,
      "contractAddress": "0x90954dcfb08c84e1eba306f59fad660b3a7b5808",
      "function": "approve(address,uint256)",
      "arguments": [
        "0x00000000000044a361Ae3cAc094c9D1b14Eece97",
        "115792089237316195423570985008687907853269984665640564039457584007913129639935"
      ],
      "transaction": {
        "from": "0x2830c21eca4d3f7b5d4e7b7ab4ca0d8c04025bf8",
        "to": "0x90954dcfb08c84e1eba306f59fad660b3a7b5808",
        "gas": "0x9322",
        "value": "0x0",
        "input": "0x095ea7b300000000000000000000000000000000000044a361ae3cac094c9d1b14eece97ffffffffffffffffffffffffffffffffffffffffffffffffffffffffffffffff",
        "nonce": "0xd1",
        "chainId": "0xaa36a7"
      },
      "additionalContracts": [],
      "isFixedGasLimit": false
    },
    {
      "hash": "0x68acbfcdce2cbd8f2dac4148c743f0e3efe873e670981d6e58d84edf762fa834",
      "transactionType": "CALL",
      "contractName": null,
      "contractAddress": "0x3b4c3885e8144af60a101c75468727863cff23fa",
      "function": "approve(address,uint256)",
      "arguments": [
        "0x00000000000044a361Ae3cAc094c9D1b14Eece97",
        "115792089237316195423570985008687907853269984665640564039457584007913129639935"
      ],
      "transaction": {
        "from": "0x2830c21eca4d3f7b5d4e7b7ab4ca0d8c04025bf8",
        "to": "0x3b4c3885e8144af60a101c75468727863cff23fa",
        "gas": "0x963b",
        "value": "0x0",
        "input": "0x095ea7b300000000000000000000000000000000000044a361ae3cac094c9d1b14eece97ffffffffffffffffffffffffffffffffffffffffffffffffffffffffffffffff",
        "nonce": "0xd2",
        "chainId": "0xaa36a7"
      },
      "additionalContracts": [],
      "isFixedGasLimit": false
    },
    {
      "hash": "0x4c807d00181c46162199114d3039a931ad0dde1ea89ae8ee2411f9f4447305bb",
      "transactionType": "CALL",
      "contractName": null,
      "contractAddress": "0x00000000000044a361ae3cac094c9d1b14eece97",
      "function": "swapExactTokensForTokens(uint256,uint256,bool,(address,address,uint24,int24,address),bytes,address,uint256)",
      "arguments": [
        "1000000000000000000",
        "0",
        "true",
        "(0x3B4c3885E8144af60A101c75468727863cFf23fA, 0x90954dcFB08C84e1ebA306f59FAD660b3A7B5808, 3000, 60, 0xc9e902b5047433935C8f6B173fC936Fd696C00c0)",
        "0x",
        "0x2830C21ecA4d3F7b5D4e7b7AB4ca0D8C04025bf8",
        "1752449388"
      ],
      "transaction": {
        "from": "0x2830c21eca4d3f7b5d4e7b7ab4ca0d8c04025bf8",
        "to": "0x00000000000044a361ae3cac094c9d1b14eece97",
        "gas": "0x2d5f8",
        "value": "0x0",
        "input": "0xb1a0d5710000000000000000000000000000000000000000000000000de0b6b3a7640000000000000000000000000000000000000000000000000000000000000000000000000000000000000000000000000000000000000000000000000000000000010000000000000000000000003b4c3885e8144af60a101c75468727863cff23fa00000000000000000000000090954dcfb08c84e1eba306f59fad660b3a7b58080000000000000000000000000000000000000000000000000000000000000bb8000000000000000000000000000000000000000000000000000000000000003c000000000000000000000000c9e902b5047433935c8f6b173fc936fd696c00c000000000000000000000000000000000000000000000000000000000000001600000000000000000000000002830c21eca4d3f7b5d4e7b7ab4ca0d8c04025bf8000000000000000000000000000000000000000000000000000000006874416c0000000000000000000000000000000000000000000000000000000000000000",
        "nonce": "0xd3",
        "chainId": "0xaa36a7"
      },
      "additionalContracts": [],
      "isFixedGasLimit": false
    }
  ],
  "receipts": [
    {
      "status": "0x1",
      "cumulativeGasUsed": "0x9bd407",
      "logs": [
        {
          "address": "0x90954dcfb08c84e1eba306f59fad660b3a7b5808",
          "topics": [
            "0x8c5be1e5ebec7d5bd14f71427d1e84f3dd0314c0f7b2291e5b200ac8c7c3b925",
            "0x0000000000000000000000002830c21eca4d3f7b5d4e7b7ab4ca0d8c04025bf8",
            "0x00000000000000000000000000000000000044a361ae3cac094c9d1b14eece97"
          ],
          "data": "0xffffffffffffffffffffffffffffffffffffffffffffffffffffffffffffffff",
          "blockHash": "0x9efd316b9af9fb9be87682032e58bef915f3e9fd40983b6fc0cf92b1ae0cae0c",
          "blockNumber": "0x85a380",
          "transactionHash": "0x51775e0d4d2078d6a3eaa8662867e0dc6b194a7945efe798405928eea30e045c",
          "transactionIndex": "0x7b",
          "logIndex": "0xc3",
          "removed": false
        }
      ],
      "logsBloom": "0x00000000000000000000000000000000000000000000000000000000000000000000000000000000000000000000000000000000000000000000000040200000000000000000000000000000000000000000000020000000000000000008000000000000000000000000000000000000000100000000000000000000000040000000000000000000000000000000000000000000000000000000000000000000020000000000000000000000000000000000000000000000000000000000000000000000000020000000000000000000000000000000000000000000000000010410000000000000000000000000008000000000000000000000000000000000",
      "type": "0x2",
      "transactionHash": "0x51775e0d4d2078d6a3eaa8662867e0dc6b194a7945efe798405928eea30e045c",
      "transactionIndex": "0x7b",
      "blockHash": "0x9efd316b9af9fb9be87682032e58bef915f3e9fd40983b6fc0cf92b1ae0cae0c",
      "blockNumber": "0x85a380",
      "gasUsed": "0x6a86",
      "effectiveGasPrice": "0xf4251",
      "from": "0x2830c21eca4d3f7b5d4e7b7ab4ca0d8c04025bf8",
      "to": "0x90954dcfb08c84e1eba306f59fad660b3a7b5808",
      "contractAddress": null
    },
    {
      "status": "0x1",
      "cumulativeGasUsed": "0x9c3ac0",
      "logs": [
        {
          "address": "0x3b4c3885e8144af60a101c75468727863cff23fa",
          "topics": [
            "0x8c5be1e5ebec7d5bd14f71427d1e84f3dd0314c0f7b2291e5b200ac8c7c3b925",
            "0x0000000000000000000000002830c21eca4d3f7b5d4e7b7ab4ca0d8c04025bf8",
            "0x00000000000000000000000000000000000044a361ae3cac094c9d1b14eece97"
          ],
          "data": "0xffffffffffffffffffffffffffffffffffffffffffffffffffffffffffffffff",
          "blockHash": "0x9efd316b9af9fb9be87682032e58bef915f3e9fd40983b6fc0cf92b1ae0cae0c",
          "blockNumber": "0x85a380",
          "transactionHash": "0x68acbfcdce2cbd8f2dac4148c743f0e3efe873e670981d6e58d84edf762fa834",
          "transactionIndex": "0x7c",
          "logIndex": "0xc4",
          "removed": false
        }
      ],
      "logsBloom": "0x00000000000000000000000000000000000000002000000000000000000000000000000000000000000000000000000000000000000000000000000040200000000000000000000000000000000000000000000000000000000000800008000000000000000000000000000000000000000000000000000000000000000040000000000000000008000000000000000000000000000000000000000000000000020000000000000000000000000000000000000000000000000000000000000000000000000000000000000000000000000000000000000000000000000000010410000000000000000000000000008000000000000000000000000000000000",
      "type": "0x2",
      "transactionHash": "0x68acbfcdce2cbd8f2dac4148c743f0e3efe873e670981d6e58d84edf762fa834",
      "transactionIndex": "0x7c",
      "blockHash": "0x9efd316b9af9fb9be87682032e58bef915f3e9fd40983b6fc0cf92b1ae0cae0c",
      "blockNumber": "0x85a380",
      "gasUsed": "0x66b9",
      "effectiveGasPrice": "0xf4251",
      "from": "0x2830c21eca4d3f7b5d4e7b7ab4ca0d8c04025bf8",
      "to": "0x3b4c3885e8144af60a101c75468727863cff23fa",
      "contractAddress": null
    },
    {
      "status": "0x1",
      "cumulativeGasUsed": "0x9e4857",
      "logs": [
        {
          "address": "0xe03a1074c86cfedd5c142c4f04f1a1536e203543",
          "topics": [
            "0x40e9cecb9f5f1f1c5b9c97dec2917b7ee92e57ba5563708daca94dd84ad7112f",
            "0x4e8851e31d32848b9d32e9b388421cc0129b43a827b1dd1c80450cb56ff0924d",
            "0x00000000000000000000000000000000000044a361ae3cac094c9d1b14eece97"
          ],
          "data": "0xfffffffffffffffffffffffffffffffffffffffffffffffff21f494c589c0000000000000000000000000000000000000000000000000000071ae7f3ba9530e300000000000000000000000000000000000000008375db3014a88ac041c282460000000000000000000000000000000000000000000000000e9ae3d533801a47ffffffffffffffffffffffffffffffffffffffffffffffffffffffffffffcbed0000000000000000000000000000000000000000000000000000000000000bb8",
          "blockHash": "0x9efd316b9af9fb9be87682032e58bef915f3e9fd40983b6fc0cf92b1ae0cae0c",
          "blockNumber": "0x85a380",
          "transactionHash": "0x4c807d00181c46162199114d3039a931ad0dde1ea89ae8ee2411f9f4447305bb",
          "transactionIndex": "0x7d",
          "logIndex": "0xc5",
          "removed": false
        },
        {
          "address": "0x3b4c3885e8144af60a101c75468727863cff23fa",
          "topics": [
            "0xddf252ad1be2c89b69c2b068fc378daa952ba7f163c4a11628f55a4df523b3ef",
            "0x0000000000000000000000002830c21eca4d3f7b5d4e7b7ab4ca0d8c04025bf8",
            "0x000000000000000000000000e03a1074c86cfedd5c142c4f04f1a1536e203543"
          ],
          "data": "0x0000000000000000000000000000000000000000000000000de0b6b3a7640000",
          "blockHash": "0x9efd316b9af9fb9be87682032e58bef915f3e9fd40983b6fc0cf92b1ae0cae0c",
          "blockNumber": "0x85a380",
          "transactionHash": "0x4c807d00181c46162199114d3039a931ad0dde1ea89ae8ee2411f9f4447305bb",
          "transactionIndex": "0x7d",
          "logIndex": "0xc6",
          "removed": false
        },
        {
          "address": "0x90954dcfb08c84e1eba306f59fad660b3a7b5808",
          "topics": [
            "0xddf252ad1be2c89b69c2b068fc378daa952ba7f163c4a11628f55a4df523b3ef",
            "0x000000000000000000000000e03a1074c86cfedd5c142c4f04f1a1536e203543",
            "0x0000000000000000000000002830c21eca4d3f7b5d4e7b7ab4ca0d8c04025bf8"
          ],
          "data": "0x000000000000000000000000000000000000000000000000071ae7f3ba9530e3",
          "blockHash": "0x9efd316b9af9fb9be87682032e58bef915f3e9fd40983b6fc0cf92b1ae0cae0c",
          "blockNumber": "0x85a380",
          "transactionHash": "0x4c807d00181c46162199114d3039a931ad0dde1ea89ae8ee2411f9f4447305bb",
          "transactionIndex": "0x7d",
          "logIndex": "0xc7",
          "removed": false
        }
      ],
      "logsBloom": "0x00000000010000000000000000000000000000002000000000000000000000000000000000000000000000000000000000000100040000000000000040000000000000000000000000000008000000000000000020000020000000800008000000000000000000000000000080000000000100000000100000000010000040000000000000000008000010000000000080000000000000000000000000000000000000000000000000000000000000000000000000000000000000000000000000000002000020000040000000000000000000000000000000001000000000011400000000000000004000000000008000000000000000000000000000000000",
      "type": "0x2",
      "transactionHash": "0x4c807d00181c46162199114d3039a931ad0dde1ea89ae8ee2411f9f4447305bb",
      "transactionIndex": "0x7d",
      "blockHash": "0x9efd316b9af9fb9be87682032e58bef915f3e9fd40983b6fc0cf92b1ae0cae0c",
      "blockNumber": "0x85a380",
      "gasUsed": "0x20d97",
      "effectiveGasPrice": "0xf4251",
      "from": "0x2830c21eca4d3f7b5d4e7b7ab4ca0d8c04025bf8",
      "to": "0x00000000000044a361ae3cac094c9d1b14eece97",
      "contractAddress": null
    }
  ],
  "libraries": [],
  "pending": [],
  "returns": {},
  "timestamp": 1752445813,
  "chain": 11155111,
  "commit": "9870984"
}