{
  "transactions": [
    {
      "hash": "0x1fdf4918dbe80d151acc6c3ce84a6fa9653017f02de195bfa2d3ec9c06e25648",
      "transactionType": "CALL",
      "contractName": null,
      "contractAddress": "0x90954dcfb08c84e1eba306f59fad660b3a7b5808",
      "function": "approve(address,uint256)",
      "arguments": [
        "0x00000000000044a361Ae3cAc094c9D1b14Eece97",
        "115792089237316195423570985008687907853269984665640564039457584007913129639935"
      ],
      "transaction": {
        "from": "0x2830c21eca4d3f7b5d4e7b7ab4ca0d8c04025bf8",
        "to": "0x90954dcfb08c84e1eba306f59fad660b3a7b5808",
        "gas": "0x9322",
        "value": "0x0",
        "input": "0x095ea7b300000000000000000000000000000000000044a361ae3cac094c9d1b14eece97ffffffffffffffffffffffffffffffffffffffffffffffffffffffffffffffff",
        "nonce": "0xe3",
        "chainId": "0xaa36a7"
      },
      "additionalContracts": [],
      "isFixedGasLimit": false
    },
    {
      "hash": "0xb8b24a1f4fd411f6f0df96ff19a23072568ae8665741f8d2a3407b688004d00e",
      "transactionType": "CALL",
      "contractName": null,
      "contractAddress": "0x3b4c3885e8144af60a101c75468727863cff23fa",
      "function": "approve(address,uint256)",
      "arguments": [
        "0x00000000000044a361Ae3cAc094c9D1b14Eece97",
        "115792089237316195423570985008687907853269984665640564039457584007913129639935"
      ],
      "transaction": {
        "from": "0x2830c21eca4d3f7b5d4e7b7ab4ca0d8c04025bf8",
        "to": "0x3b4c3885e8144af60a101c75468727863cff23fa",
        "gas": "0x963b",
        "value": "0x0",
        "input": "0x095ea7b300000000000000000000000000000000000044a361ae3cac094c9d1b14eece97ffffffffffffffffffffffffffffffffffffffffffffffffffffffffffffffff",
        "nonce": "0xe4",
        "chainId": "0xaa36a7"
      },
      "additionalContracts": [],
      "isFixedGasLimit": false
    },
    {
      "hash": "0xa9cc2d77f779ddaf1468ac1a36bc5b8fdcae12482413125cb63350504ba23ed9",
      "transactionType": "CALL",
      "contractName": null,
      "contractAddress": "0x00000000000044a361ae3cac094c9d1b14eece97",
      "function": "swapExactTokensForTokens(uint256,uint256,bool,(address,address,uint24,int24,address),bytes,address,uint256)",
      "arguments": [
        "1000000000000000000",
        "0",
        "true",
        "(0x3B4c3885E8144af60A101c75468727863cFf23fA, 0x90954dcFB08C84e1ebA306f59FAD660b3A7B5808, 3000, 60, 0xc9e902b5047433935C8f6B173fC936Fd696C00c0)",
        "0x",
        "0x2830C21ecA4d3F7b5D4e7b7AB4ca0D8C04025bf8",
        "1752478284"
      ],
      "transaction": {
        "from": "0x2830c21eca4d3f7b5d4e7b7ab4ca0d8c04025bf8",
        "to": "0x00000000000044a361ae3cac094c9d1b14eece97",
        "gas": "0x25de0",
        "value": "0x0",
        "input": "0xb1a0d5710000000000000000000000000000000000000000000000000de0b6b3a7640000000000000000000000000000000000000000000000000000000000000000000000000000000000000000000000000000000000000000000000000000000000010000000000000000000000003b4c3885e8144af60a101c75468727863cff23fa00000000000000000000000090954dcfb08c84e1eba306f59fad660b3a7b58080000000000000000000000000000000000000000000000000000000000000bb8000000000000000000000000000000000000000000000000000000000000003c000000000000000000000000c9e902b5047433935c8f6b173fc936fd696c00c000000000000000000000000000000000000000000000000000000000000001600000000000000000000000002830c21eca4d3f7b5d4e7b7ab4ca0d8c04025bf8000000000000000000000000000000000000000000000000000000006874b24c0000000000000000000000000000000000000000000000000000000000000000",
        "nonce": "0xe5",
        "chainId": "0xaa36a7"
      },
      "additionalContracts": [],
      "isFixedGasLimit": false
    }
  ],
  "receipts": [
    {
      "status": "0x1",
      "cumulativeGasUsed": "0x154bf1c",
      "logs": [
        {
          "address": "0x90954dcfb08c84e1eba306f59fad660b3a7b5808",
          "topics": [
            "0x8c5be1e5ebec7d5bd14f71427d1e84f3dd0314c0f7b2291e5b200ac8c7c3b925",
            "0x0000000000000000000000002830c21eca4d3f7b5d4e7b7ab4ca0d8c04025bf8",
            "0x00000000000000000000000000000000000044a361ae3cac094c9d1b14eece97"
          ],
          "data": "0xffffffffffffffffffffffffffffffffffffffffffffffffffffffffffffffff",
          "blockHash": "0x5a885ec66b602e58d693f918b2627a91c8c7d6ba116939f260236f04c13ce30b",
          "blockNumber": "0x85ace5",
          "transactionHash": "0x1fdf4918dbe80d151acc6c3ce84a6fa9653017f02de195bfa2d3ec9c06e25648",
          "transactionIndex": "0x103",
          "logIndex": "0x100",
          "removed": false
        }
      ],
      "logsBloom": "0x00000000000000000000000000000000000000000000000000000000000000000000000000000000000000000000000000000000000000000000000040200000000000000000000000000000000000000000000020000000000000000008000000000000000000000000000000000000000100000000000000000000000040000000000000000000000000000000000000000000000000000000000000000000020000000000000000000000000000000000000000000000000000000000000000000000000020000000000000000000000000000000000000000000000000010410000000000000000000000000008000000000000000000000000000000000",
      "type": "0x2",
      "transactionHash": "0x1fdf4918dbe80d151acc6c3ce84a6fa9653017f02de195bfa2d3ec9c06e25648",
      "transactionIndex": "0x103",
      "blockHash": "0x5a885ec66b602e58d693f918b2627a91c8c7d6ba116939f260236f04c13ce30b",
      "blockNumber": "0x85ace5",
      "gasUsed": "0x6a86",
      "effectiveGasPrice": "0x100161",
      "from": "0x2830c21eca4d3f7b5d4e7b7ab4ca0d8c04025bf8",
      "to": "0x90954dcfb08c84e1eba306f59fad660b3a7b5808",
      "contractAddress": null
    },
    {
      "status": "0x1",
      "cumulativeGasUsed": "0x15525d5",
      "logs": [
        {
          "address": "0x3b4c3885e8144af60a101c75468727863cff23fa",
          "topics": [
            "0x8c5be1e5ebec7d5bd14f71427d1e84f3dd0314c0f7b2291e5b200ac8c7c3b925",
            "0x0000000000000000000000002830c21eca4d3f7b5d4e7b7ab4ca0d8c04025bf8",
            "0x00000000000000000000000000000000000044a361ae3cac094c9d1b14eece97"
          ],
          "data": "0xffffffffffffffffffffffffffffffffffffffffffffffffffffffffffffffff",
          "blockHash": "0x5a885ec66b602e58d693f918b2627a91c8c7d6ba116939f260236f04c13ce30b",
          "blockNumber": "0x85ace5",
          "transactionHash": "0xb8b24a1f4fd411f6f0df96ff19a23072568ae8665741f8d2a3407b688004d00e",
          "transactionIndex": "0x104",
          "logIndex": "0x101",
          "removed": false
        }
      ],
      "logsBloom": "0x00000000000000000000000000000000000000002000000000000000000000000000000000000000000000000000000000000000000000000000000040200000000000000000000000000000000000000000000000000000000000800008000000000000000000000000000000000000000000000000000000000000000040000000000000000008000000000000000000000000000000000000000000000000020000000000000000000000000000000000000000000000000000000000000000000000000000000000000000000000000000000000000000000000000000010410000000000000000000000000008000000000000000000000000000000000",
      "type": "0x2",
      "transactionHash": "0xb8b24a1f4fd411f6f0df96ff19a23072568ae8665741f8d2a3407b688004d00e",
      "transactionIndex": "0x104",
      "blockHash": "0x5a885ec66b602e58d693f918b2627a91c8c7d6ba116939f260236f04c13ce30b",
      "blockNumber": "0x85ace5",
      "gasUsed": "0x66b9",
      "effectiveGasPrice": "0x100161",
      "from": "0x2830c21eca4d3f7b5d4e7b7ab4ca0d8c04025bf8",
      "to": "0x3b4c3885e8144af60a101c75468727863cff23fa",
      "contractAddress": null
    },
    {
      "status": "0x1",
      "cumulativeGasUsed": "0x156dc7a",
      "logs": [
        {
          "address": "0xe03a1074c86cfedd5c142c4f04f1a1536e203543",
          "topics": [
            "0x40e9cecb9f5f1f1c5b9c97dec2917b7ee92e57ba5563708daca94dd84ad7112f",
            "0x4e8851e31d32848b9d32e9b388421cc0129b43a827b1dd1c80450cb56ff0924d",
            "0x00000000000000000000000000000000000044a361ae3cac094c9d1b14eece97"
          ],
          "data": "0xfffffffffffffffffffffffffffffffffffffffffffffffff21f494c589c0000000000000000000000000000000000000000000000000000013e7b8af04bfaee000000000000000000000000000000000000000042a17ef08b013cbe491394ea0000000000000000000000000000000000000000000000000e9ae3d533801a47ffffffffffffffffffffffffffffffffffffffffffffffffffffffffffff96d60000000000000000000000000000000000000000000000000000000000000bb8",
          "blockHash": "0x5a885ec66b602e58d693f918b2627a91c8c7d6ba116939f260236f04c13ce30b",
          "blockNumber": "0x85ace5",
          "transactionHash": "0xa9cc2d77f779ddaf1468ac1a36bc5b8fdcae12482413125cb63350504ba23ed9",
          "transactionIndex": "0x105",
          "logIndex": "0x102",
          "removed": false
        },
        {
          "address": "0x3b4c3885e8144af60a101c75468727863cff23fa",
          "topics": [
            "0xddf252ad1be2c89b69c2b068fc378daa952ba7f163c4a11628f55a4df523b3ef",
            "0x0000000000000000000000002830c21eca4d3f7b5d4e7b7ab4ca0d8c04025bf8",
            "0x000000000000000000000000e03a1074c86cfedd5c142c4f04f1a1536e203543"
          ],
          "data": "0x0000000000000000000000000000000000000000000000000de0b6b3a7640000",
          "blockHash": "0x5a885ec66b602e58d693f918b2627a91c8c7d6ba116939f260236f04c13ce30b",
          "blockNumber": "0x85ace5",
          "transactionHash": "0xa9cc2d77f779ddaf1468ac1a36bc5b8fdcae12482413125cb63350504ba23ed9",
          "transactionIndex": "0x105",
          "logIndex": "0x103",
          "removed": false
        },
        {
          "address": "0x90954dcfb08c84e1eba306f59fad660b3a7b5808",
          "topics": [
            "0xddf252ad1be2c89b69c2b068fc378daa952ba7f163c4a11628f55a4df523b3ef",
            "0x000000000000000000000000e03a1074c86cfedd5c142c4f04f1a1536e203543",
            "0x0000000000000000000000002830c21eca4d3f7b5d4e7b7ab4ca0d8c04025bf8"
          ],
          "data": "0x000000000000000000000000000000000000000000000000013e7b8af04bfaee",
          "blockHash": "0x5a885ec66b602e58d693f918b2627a91c8c7d6ba116939f260236f04c13ce30b",
          "blockNumber": "0x85ace5",
          "transactionHash": "0xa9cc2d77f779ddaf1468ac1a36bc5b8fdcae12482413125cb63350504ba23ed9",
          "transactionIndex": "0x105",
          "logIndex": "0x104",
          "removed": false
        }
      ],
      "logsBloom": "0x00000000010000000000000000000000000000002000000000000000000000000000000000000000000000000000000000000100040000000000000040000000000000000000000000000008000000000000000020000020000000800008000000000000000000000000000080000000000100000000100000000010000040000000000000000008000010000000000080000000000000000000000000000000000000000000000000000000000000000000000000000000000000000000000000000002000020000040000000000000000000000000000000001000000000011400000000000000004000000000008000000000000000000000000000000000",
      "type": "0x2",
      "transactionHash": "0xa9cc2d77f779ddaf1468ac1a36bc5b8fdcae12482413125cb63350504ba23ed9",
      "transactionIndex": "0x105",
      "blockHash": "0x5a885ec66b602e58d693f918b2627a91c8c7d6ba116939f260236f04c13ce30b",
      "blockNumber": "0x85ace5",
      "gasUsed": "0x1b6a5",
      "effectiveGasPrice": "0x100161",
      "from": "0x2830c21eca4d3f7b5d4e7b7ab4ca0d8c04025bf8",
      "to": "0x00000000000044a361ae3cac094c9d1b14eece97",
      "contractAddress": null
    }
  ],
  "libraries": [],
  "pending": [],
  "returns": {},
  "timestamp": 1752474721,
  "chain": 11155111,
  "commit": "9870984"
}